{
  "contractName": "Migrations",
  "abi": [
    {
      "inputs": [],
      "stateMutability": "nonpayable",
      "type": "constructor"
    },
    {
      "anonymous": false,
      "inputs": [
        {
          "indexed": true,
          "internalType": "address",
          "name": "previousOwner",
          "type": "address"
        },
        {
          "indexed": true,
          "internalType": "address",
          "name": "newOwner",
          "type": "address"
        }
      ],
      "name": "OwnershipTransferred",
      "type": "event"
    },
    {
      "inputs": [],
      "name": "lastCompletedMigration",
      "outputs": [
        {
          "internalType": "uint256",
          "name": "",
          "type": "uint256"
        }
      ],
      "stateMutability": "view",
      "type": "function",
      "constant": true
    },
    {
      "inputs": [],
      "name": "owner",
      "outputs": [
        {
          "internalType": "address",
          "name": "",
          "type": "address"
        }
      ],
      "stateMutability": "view",
      "type": "function",
      "constant": true
    },
    {
      "inputs": [],
      "name": "renounceOwnership",
      "outputs": [],
      "stateMutability": "nonpayable",
      "type": "function"
    },
    {
      "inputs": [
        {
          "internalType": "address",
          "name": "newOwner",
          "type": "address"
        }
      ],
      "name": "transferOwnership",
      "outputs": [],
      "stateMutability": "nonpayable",
      "type": "function"
    },
    {
      "inputs": [
        {
          "internalType": "uint256",
          "name": "completed",
          "type": "uint256"
        }
      ],
      "name": "setCompleted",
      "outputs": [],
      "stateMutability": "nonpayable",
      "type": "function"
    },
    {
      "inputs": [
        {
          "internalType": "address",
          "name": "newAddress",
          "type": "address"
        }
      ],
      "name": "upgrade",
      "outputs": [],
      "stateMutability": "nonpayable",
      "type": "function"
    }
  ],
  "bytecode": "0x608060405234801561001057600080fd5b5060006100246001600160e01b0361007316565b600080546001600160a01b0319166001600160a01b0383169081178255604051929350917f8be0079c531659141344cd1fd0a4f28419497f9722a3daafe3b4186f6b6457e0908290a350610077565b3390565b610465806100866000396000f3fe608060405234801561001057600080fd5b50600436106100625760003560e01c80630900f01014610067578063715018a61461008f5780638da5cb5b14610097578063f2fde38b146100bb578063fbdbad3c146100e1578063fdacd576146100fb575b600080fd5b61008d6004803603602081101561007d57600080fd5b50356001600160a01b0316610118565b005b61008d6101d9565b61009f61027b565b604080516001600160a01b039092168252519081900360200190f35b61008d600480360360208110156100d157600080fd5b50356001600160a01b031661028a565b6100e9610382565b60408051918252519081900360200190f35b61008d6004803603602081101561011157600080fd5b5035610388565b6101206103e5565b6000546001600160a01b03908116911614610170576040805162461bcd60e51b81526020600482018190526024820152600080516020610410833981519152604482015290519081900360640190fd5b6000819050806001600160a01b031663fdacd5766001546040518263ffffffff1660e01b815260040180828152602001915050600060405180830381600087803b1580156101bd57600080fd5b505af11580156101d1573d6000803e3d6000fd5b505050505050565b6101e16103e5565b6000546001600160a01b03908116911614610231576040805162461bcd60e51b81526020600482018190526024820152600080516020610410833981519152604482015290519081900360640190fd5b600080546040516001600160a01b03909116907f8be0079c531659141344cd1fd0a4f28419497f9722a3daafe3b4186f6b6457e0908390a3600080546001600160a01b0319169055565b6000546001600160a01b031690565b6102926103e5565b6000546001600160a01b039081169116146102e2576040805162461bcd60e51b81526020600482018190526024820152600080516020610410833981519152604482015290519081900360640190fd5b6001600160a01b0381166103275760405162461bcd60e51b81526004018080602001828103825260268152602001806103ea6026913960400191505060405180910390fd5b600080546040516001600160a01b03808516939216917f8be0079c531659141344cd1fd0a4f28419497f9722a3daafe3b4186f6b6457e091a3600080546001600160a01b0319166001600160a01b0392909216919091179055565b60015481565b6103906103e5565b6000546001600160a01b039081169116146103e0576040805162461bcd60e51b81526020600482018190526024820152600080516020610410833981519152604482015290519081900360640190fd5b600155565b339056fe4f776e61626c653a206e6577206f776e657220697320746865207a65726f20616464726573734f776e61626c653a2063616c6c6572206973206e6f7420746865206f776e6572a2646970667358221220b972ca62c5c10c4353702999ea430447887893865f3a4ebb23c8d131e9aa64c564736f6c63430006090033",
  "immutableReferences": {},
  "source": "pragma solidity ^0.6.0;\n\nimport \"@openzeppelin/contracts/access/Ownable.sol\";\n\n\ncontract Migrations is Ownable\n{\n\tuint256 public lastCompletedMigration;\n\n\tconstructor()\n\tpublic\n\t{\n\t}\n\n\tfunction setCompleted(uint completed) public onlyOwner\n\t{\n\t\tlastCompletedMigration = completed;\n\t}\n\n\tfunction upgrade(address newAddress) public onlyOwner\n\t{\n\t\tMigrations upgraded = Migrations(newAddress);\n\t\tupgraded.setCompleted(lastCompletedMigration);\n\t}\n}\n",
  "sourcePath": "/home/amxx/EEIM/packages/Forwarders/contracts/tools/Migrations.sol",
  "compiler": {
    "name": "solc",
    "version": "0.6.9+commit.3e3065ac.Emscripten.clang"
  },
  "schemaVersion": "3.2.0",
  "updatedAt": "2020-06-08T14:05:28.615Z",
  "networkType": "ethereum",
  "devdoc": {
    "methods": {
      "owner()": {
        "details": "Returns the address of the current owner."
      },
      "renounceOwnership()": {
        "details": "Leaves the contract without owner. It will not be possible to call `onlyOwner` functions anymore. Can only be called by the current owner. NOTE: Renouncing ownership will leave the contract without an owner, thereby removing any functionality that is only available to the owner."
      },
      "transferOwnership(address)": {
        "details": "Transfers ownership of the contract to a new account (`newOwner`). Can only be called by the current owner."
      }
    }
  },
  "userdoc": {
    "methods": {}
  }
}