{
  "contractName": "SimpleForwarder",
  "abi": [
    {
      "inputs": [
        {
          "internalType": "address",
          "name": "",
          "type": "address"
        }
      ],
      "name": "nonces",
      "outputs": [
        {
          "internalType": "uint256",
          "name": "",
          "type": "uint256"
        }
      ],
      "stateMutability": "view",
      "type": "function",
      "constant": true
    },
    {
      "inputs": [
        {
          "internalType": "address",
          "name": "target",
          "type": "address"
        },
        {
          "internalType": "bytes",
          "name": "data",
          "type": "bytes"
        },
        {
          "internalType": "uint256",
          "name": "nonce",
          "type": "uint256"
        },
        {
          "internalType": "bytes",
          "name": "sign",
          "type": "bytes"
        }
      ],
      "name": "relayRequest",
      "outputs": [],
      "stateMutability": "nonpayable",
      "type": "function"
    },
    {
      "inputs": [
        {
          "internalType": "address",
          "name": "target",
          "type": "address"
        },
        {
          "internalType": "bytes",
          "name": "data",
          "type": "bytes"
        },
        {
          "internalType": "uint256",
          "name": "nonce",
          "type": "uint256"
        }
      ],
      "name": "hash",
      "outputs": [
        {
          "internalType": "bytes32",
          "name": "",
          "type": "bytes32"
        }
      ],
      "stateMutability": "nonpayable",
      "type": "function"
    },
    {
      "inputs": [],
      "name": "chainId",
      "outputs": [
        {
          "internalType": "uint256",
          "name": "id",
          "type": "uint256"
        }
      ],
      "stateMutability": "pure",
      "type": "function",
      "constant": true
    }
  ],
  "bytecode": "0x608060405234801561001057600080fd5b50610781806100206000396000f3fe608060405234801561001057600080fd5b506004361061004c5760003560e01c8063527d8526146100515780637ecebe00146101295780639a8a059214610161578063c5fbb05514610169575b600080fd5b6101276004803603608081101561006757600080fd5b6001600160a01b03823516919081019060408101602082013564010000000081111561009257600080fd5b8201836020820111156100a457600080fd5b803590602001918460018302840111640100000000831117156100c657600080fd5b919390928235926040810190602001356401000000008111156100e857600080fd5b8201836020820111156100fa57600080fd5b8035906020019184600183028401116401000000008311171561011c57600080fd5b5090925090506101e9565b005b61014f6004803603602081101561013f57600080fd5b50356001600160a01b0316610434565b60408051918252519081900360200190f35b61014f610446565b61014f6004803603606081101561017f57600080fd5b6001600160a01b0382351691908101906040810160208201356401000000008111156101aa57600080fd5b8201836020820111156101bc57600080fd5b803590602001918460018302840111640100000000831117156101de57600080fd5b91935091503561044a565b600061024783838080601f01602080910402602001604051908101604052809392919081815260200183838082843760009201919091525061023b925061023691508b90508a8a8a61044a565b6104cf565b9063ffffffff61052016565b6001600160a01b038116600090815260208190526040902080546001810190915590915084146102ae576040805162461bcd60e51b815260206004820152600d60248201526c696e76616c69642d6e6f6e636560981b604482015290519081900360640190fd5b60006060886001600160a01b03168888856040516020018084848082843780830192505050826001600160a01b03166001600160a01b031660601b815260140193505050506040516020818303038152906040526040518082805190602001908083835b602083106103315780518252601f199092019160209182019101610312565b6001836020036101000a0380198251168184511680821785525050505050509050019150506000604051808303816000865af19150503d8060008114610393576040519150601f19603f3d011682016040523d82523d6000602084013e610398565b606091505b50915091508181906104285760405162461bcd60e51b81526004018080602001828103825283818151815260200191508051906020019080838360005b838110156103ed5781810151838201526020016103d5565b50505050905090810190601f16801561041a5780820380516001836020036101000a031916815260200191505b509250505060405180910390fd5b50505050505050505050565b60006020819052908152604090205481565b4690565b600030610455610446565b8686868660405160200180876001600160a01b03166001600160a01b031660601b8152601401868152602001856001600160a01b03166001600160a01b031660601b8152601401848480828437919091019283525050604080518083038152602092830190915280519101209a9950505050505050505050565b604080517f19457468657265756d205369676e6564204d6573736167653a0a333200000000602080830191909152603c8083019490945282518083039094018452605c909101909152815191012090565b60008151604114610578576040805162461bcd60e51b815260206004820152601f60248201527f45434453413a20696e76616c6964207369676e6174757265206c656e67746800604482015290519081900360640190fd5b60208201516040830151606084015160001a7f7fffffffffffffffffffffffffffffff5d576e7357a4501ddfe92f46681b20a08211156105e95760405162461bcd60e51b81526004018080602001828103825260228152602001806107086022913960400191505060405180910390fd5b8060ff16601b1415801561060157508060ff16601c14155b1561063d5760405162461bcd60e51b815260040180806020018281038252602281526020018061072a6022913960400191505060405180910390fd5b60408051600080825260208083018085528a905260ff85168385015260608301879052608083018690529251909260019260a080820193601f1981019281900390910190855afa158015610695573d6000803e3d6000fd5b5050604051601f1901519150506001600160a01b0381166106fd576040805162461bcd60e51b815260206004820152601860248201527f45434453413a20696e76616c6964207369676e61747572650000000000000000604482015290519081900360640190fd5b969550505050505056fe45434453413a20696e76616c6964207369676e6174757265202773272076616c756545434453413a20696e76616c6964207369676e6174757265202776272076616c7565a2646970667358221220a1a747fbdca609b8c0befaace211ac6bd67b9d70f1a793b10dc7c777be2f79da64736f6c63430006090033",
  "immutableReferences": {},
  "source": "pragma solidity ^0.6.0;\n\nimport \"@openzeppelin/contracts/cryptography/ECDSA.sol\";\n\ncontract SimpleForwarder\n{\n\tusing ECDSA for bytes32;\n\n\tmapping(address => uint256) public nonces;\n\n\tfunction relayRequest(\n\t\taddress        target,\n\t\tbytes calldata data,\n\t\tuint256        nonce,\n\t\tbytes calldata sign)\n\texternal\n\t{\n\t\taddress sender = hash(target, data, nonce).toEthSignedMessageHash().recover(sign);\n\t\trequire(nonces[sender]++ == nonce, \"invalid-nonce\");\n\t\t(bool success, bytes memory returndata) = target.call(abi.encodePacked(data, sender));\n\t\trequire(success, string(returndata));\n\t}\n\n\tfunction hash(address target, bytes calldata data, uint256 nonce)\n\tpublic returns (bytes32)\n\t{\n\t\treturn keccak256(abi.encodePacked(\n\t\t\taddress(this),\n\t\t\tchainId(),\n\t\t\ttarget,\n\t\t\tdata,\n\t\t\tnonce\n\t\t));\n\t}\n\n\tfunction chainId()\n\tpublic pure returns (uint256 id)\n\t{\n\t\tassembly { id := chainid() }\n\t}\n}\n",
  "sourcePath": "/home/amxx/EEIM/packages/Forwarders/contracts/SimpleForwarder.sol",
  "compiler": {
    "name": "solc",
    "version": "0.6.9+commit.3e3065ac.Emscripten.clang"
  },
  "schemaVersion": "3.2.0",
  "updatedAt": "2020-06-08T09:36:53.120Z",
  "networkType": "ethereum",
  "devdoc": {
    "methods": {}
  },
  "userdoc": {
    "methods": {}
  }
}