{
  "contractName": "AdministeredWallet",
  "abi": [
    {
      "anonymous": false,
      "inputs": [
        {
          "indexed": true,
          "internalType": "address",
          "name": "to",
          "type": "address"
        },
        {
          "indexed": false,
          "internalType": "uint256",
          "name": "value",
          "type": "uint256"
        },
        {
          "indexed": false,
          "internalType": "bytes",
          "name": "data",
          "type": "bytes"
        }
      ],
      "name": "Executed",
      "type": "event"
    },
    {
      "anonymous": false,
      "inputs": [
        {
          "indexed": true,
          "internalType": "address",
          "name": "from",
          "type": "address"
        },
        {
          "indexed": false,
          "internalType": "uint256",
          "name": "value",
          "type": "uint256"
        }
      ],
      "name": "Received",
      "type": "event"
    },
    {
      "inputs": [
        {
          "internalType": "address",
          "name": "_registry",
          "type": "address"
        }
      ],
      "name": "initialize",
      "outputs": [],
      "stateMutability": "nonpayable",
      "type": "function"
    },
    {
      "inputs": [
        {
          "internalType": "address",
          "name": "forwarder",
          "type": "address"
        }
      ],
      "name": "isTrustedForwarder",
      "outputs": [
        {
          "internalType": "bool",
          "name": "",
          "type": "bool"
        }
      ],
      "stateMutability": "view",
      "type": "function"
    },
    {
      "inputs": [],
      "name": "owner",
      "outputs": [
        {
          "internalType": "address",
          "name": "",
          "type": "address"
        }
      ],
      "stateMutability": "view",
      "type": "function"
    },
    {
      "inputs": [],
      "name": "registry",
      "outputs": [
        {
          "internalType": "contract IERC721",
          "name": "",
          "type": "address"
        }
      ],
      "stateMutability": "view",
      "type": "function"
    },
    {
      "inputs": [],
      "name": "versionRecipient",
      "outputs": [
        {
          "internalType": "string",
          "name": "",
          "type": "string"
        }
      ],
      "stateMutability": "view",
      "type": "function"
    },
    {
      "inputs": [],
      "name": "getTrustedForwarder",
      "outputs": [
        {
          "internalType": "address",
          "name": "",
          "type": "address"
        }
      ],
      "stateMutability": "view",
      "type": "function"
    },
    {
      "inputs": [
        {
          "internalType": "address",
          "name": "_trustedForwarder",
          "type": "address"
        }
      ],
      "name": "configure",
      "outputs": [],
      "stateMutability": "nonpayable",
      "type": "function"
    },
    {
      "inputs": [
        {
          "internalType": "address",
          "name": "to",
          "type": "address"
        },
        {
          "internalType": "uint256",
          "name": "value",
          "type": "uint256"
        },
        {
          "internalType": "bytes",
          "name": "data",
          "type": "bytes"
        }
      ],
      "name": "forward",
      "outputs": [],
      "stateMutability": "nonpayable",
      "type": "function"
    },
    {
      "inputs": [
        {
          "components": [
            {
              "internalType": "address",
              "name": "to",
              "type": "address"
            },
            {
              "internalType": "uint256",
              "name": "value",
              "type": "uint256"
            },
            {
              "internalType": "bytes",
              "name": "data",
              "type": "bytes"
            }
          ],
          "internalType": "struct Call[]",
          "name": "calls",
          "type": "tuple[]"
        }
      ],
      "name": "forwardBatch",
      "outputs": [],
      "stateMutability": "nonpayable",
      "type": "function"
    },
    {
      "inputs": [
        {
          "internalType": "address",
          "name": "",
          "type": "address"
        },
        {
          "internalType": "address",
          "name": "",
          "type": "address"
        },
        {
          "internalType": "uint256",
          "name": "",
          "type": "uint256"
        },
        {
          "internalType": "bytes",
          "name": "",
          "type": "bytes"
        }
      ],
      "name": "onERC721Received",
      "outputs": [
        {
          "internalType": "bytes4",
          "name": "",
          "type": "bytes4"
        }
      ],
      "stateMutability": "nonpayable",
      "type": "function"
    },
    {
      "inputs": [
        {
          "internalType": "address",
          "name": "",
          "type": "address"
        },
        {
          "internalType": "address",
          "name": "",
          "type": "address"
        },
        {
          "internalType": "address",
          "name": "",
          "type": "address"
        },
        {
          "internalType": "uint256",
          "name": "",
          "type": "uint256"
        },
        {
          "internalType": "bytes",
          "name": "",
          "type": "bytes"
        },
        {
          "internalType": "bytes",
          "name": "",
          "type": "bytes"
        }
      ],
      "name": "tokensReceived",
      "outputs": [],
      "stateMutability": "nonpayable",
      "type": "function"
    },
    {
      "inputs": [
        {
          "internalType": "bytes32",
          "name": "data",
          "type": "bytes32"
        },
        {
          "internalType": "bytes",
          "name": "signature",
          "type": "bytes"
        }
      ],
      "name": "isValidSignature",
      "outputs": [
        {
          "internalType": "bytes4",
          "name": "magicValue",
          "type": "bytes4"
        }
      ],
      "stateMutability": "view",
      "type": "function"
    },
    {
      "inputs": [
        {
          "internalType": "bytes",
          "name": "data",
          "type": "bytes"
        },
        {
          "internalType": "bytes",
          "name": "signature",
          "type": "bytes"
        }
      ],
      "name": "isValidSignature",
      "outputs": [
        {
          "internalType": "bytes4",
          "name": "magicValue",
          "type": "bytes4"
        }
      ],
      "stateMutability": "view",
      "type": "function"
    }
  ],
  "bytecode": "0x608060405234801561001057600080fd5b5061117a806100206000396000f3fe608060405234801561001057600080fd5b50600436106100ce5760003560e01c806375cb26721161008c578063aef0562911610066578063aef056291461019c578063c4d66de8146101af578063ce1b815f146101c2578063d7f31eb9146101ca576100ce565b806375cb26721461016c5780637b1039991461017f5780638da5cb5b14610194576100ce565b806223de29146100d3578063150b7a02146100e85780631626ba7e1461011157806320c13b0b14610124578063486ff0cd14610137578063572b6c051461014c575b600080fd5b6100e66100e1366004610bec565b6101dd565b005b6100fb6100f6366004610c8d565b6101e5565b6040516101089190610f6e565b60405180910390f35b6100fb61011f366004610dbd565b6101f6565b6100fb610132366004610e2f565b610312565b61013f610444565b6040516101089190610fd7565b61015f61015a366004610bb4565b610462565b6040516101089190610f22565b6100e661017a366004610bb4565b610476565b6101876104d6565b6040516101089190610f0e565b6101876104e5565b6100e66101aa366004610d51565b61056b565b6100e66101bd366004610bb4565b610699565b610187610729565b6100e66101d8366004610cf7565b610738565b505050505050565b630a85bd0160e11b5b949350505050565b6000806102016104e5565b9050610215816001600160a01b03166107de565b156102a257604051630b135d3f60e11b81526001600160a01b03821690631626ba7e9061024a90889088908890600401610f2d565b60206040518083038186803b15801561026257600080fd5b505afa158015610276573d6000803e3d6000fd5b505050506040513d601f19601f8201168201806040525081019061029a9190610e07565b91505061030b565b6102e28585858080601f01602080910402602001604051908101604052809392919081815260200183838082843760009201919091525061081792505050565b6001600160a01b0316816001600160a01b0316146102ff57600080fd5b50630b135d3f60e11b90505b9392505050565b60008061031d6104e5565b9050610331816001600160a01b03166107de565b156103c0576040516320c13b0b60e01b81526001600160a01b038216906320c13b0b90610368908990899089908990600401610f83565b60206040518083038186803b15801561038057600080fd5b505afa158015610394573d6000803e3d6000fd5b505050506040513d601f19601f820116820180604052508101906103b89190610e07565b9150506101ee565b61041786866040516103d3929190610ee2565b604051809103902085858080601f01602080910402602001604051908101604052809392919081815260200183838082843760009201919091525061081792505050565b6001600160a01b0316816001600160a01b03161461043457600080fd5b506320c13b0b60e01b90506101ee565b6040805180820190915260038152620312e360ec1b60208201525b90565b6001546001600160a01b0390811691161490565b61047e61090e565b6000546001600160a01b039081169116146104b45760405162461bcd60e51b81526004016104ab90611017565b60405180910390fd5b600180546001600160a01b0319166001600160a01b0392909216919091179055565b6000546001600160a01b031681565b600080546040516331a9108f60e11b81526001600160a01b0390911690636352211e90610516903090600401611085565b60206040518083038186803b15801561052e57600080fd5b505afa158015610542573d6000803e3d6000fd5b505050506040513d601f19601f820116820180604052508101906105669190610bd0565b905090565b61057361090e565b6001600160a01b03166105846104e5565b6001600160a01b031614806105ae575061059c61090e565b6000546001600160a01b039081169116145b6105ca5760405162461bcd60e51b81526004016104ab90611017565b60005b818110156106945761068c8383838181106105e457fe5b90506020028101906105f691906110ee565b610604906020810190610bb4565b84848481811061061057fe5b905060200281019061062291906110ee565b6020013585858581811061063257fe5b905060200281019061064491906110ee565b6106529060408101906110a7565b8080601f01602080910402602001604051908101604052809392919081815260200183838082843760009201919091525061091892505050565b6001016105cd565b505050565b6000546001600160a01b0316156106c25760405162461bcd60e51b81526004016104ab90610fea565b600080546001600160a01b0319166001600160a01b03831617905547156107265760006001600160a01b03167f88a5966d370b9919b20f3e2c13ff65706f196a4e32cc2c12bf57088f885258744760405161071d9190611085565b60405180910390a25b50565b6001546001600160a01b031690565b61074061090e565b6001600160a01b03166107516104e5565b6001600160a01b0316148061077b575061076961090e565b6000546001600160a01b039081169116145b6107975760405162461bcd60e51b81526004016104ab90611017565b6107d8848484848080601f01602080910402602001604051908101604052809392919081815260200183838082843760009201919091525061091892505050565b50505050565b6000813f7fc5d2460186f7233c927e7db2dcc703c0e500b653ca82273b7bfad8045d85a4708181148015906101ee575050151592915050565b6000806000808451604114156108415750505060208201516040830151606084015160001a610886565b84516040141561086e57505050602082015160408301516001600160ff1b0381169060001a60071c610886565b60405162461bcd60e51b81526004016104ab9061104e565b601b8160ff16101561089657601b015b8060ff16601b14806108ab57508060ff16601c145b6108b457600080fd5b600186828585604051600081526020016040526040516108d79493929190610f50565b6020604051602081039080840390855afa1580156108f9573d6000803e3d6000fd5b5050604051601f190151979650505050505050565b60006105666109e7565b60006060846001600160a01b031684846040516109359190610ef2565b60006040518083038185875af1925050503d8060008114610972576040519150601f19603f3d011682016040523d82523d6000602084013e610977565b606091505b509150915081819061099c5760405162461bcd60e51b81526004016104ab9190610fd7565b50846001600160a01b03167fcaf938de11c367272220bfd1d2baa99ca46665e7bc4d85f00adb51b90fe1fa9f85856040516109d892919061108e565b60405180910390a25050505050565b6000601836108015906109fe57506109fe33610462565b15610a5057610a496000368080601f0160208091040260200160405190810160405280939291908181526020018383808284376000920191909152505060131936019150610a559050565b905061045f565b503390565b60008160140183511015610a7b57610a7b610a766004855185601401610a8d565b610ae7565b5001601401516001600160a01b031690565b6060632800659560e01b848484604051602401610aac93929190610fb5565b60408051601f198184030181529190526020810180516001600160e01b03166001600160e01b03199093169290921790915290509392505050565b805160208201fd5b60008083601f840112610b00578182fd5b50813567ffffffffffffffff811115610b17578182fd5b602083019150836020828501011115610b2f57600080fd5b9250929050565b600082601f830112610b46578081fd5b813567ffffffffffffffff80821115610b5d578283fd5b604051601f8301601f191681016020018281118282101715610b7d578485fd5b604052828152925082848301602001861015610b9857600080fd5b8260208601602083013760006020848301015250505092915050565b600060208284031215610bc5578081fd5b813561030b8161112f565b600060208284031215610be1578081fd5b815161030b8161112f565b60008060008060008060c08789031215610c04578182fd5b8635610c0f8161112f565b95506020870135610c1f8161112f565b94506040870135610c2f8161112f565b935060608701359250608087013567ffffffffffffffff80821115610c52578384fd5b610c5e8a838b01610b36565b935060a0890135915080821115610c73578283fd5b50610c8089828a01610b36565b9150509295509295509295565b60008060008060808587031215610ca2578384fd5b8435610cad8161112f565b93506020850135610cbd8161112f565b925060408501359150606085013567ffffffffffffffff811115610cdf578182fd5b610ceb87828801610b36565b91505092959194509250565b60008060008060608587031215610d0c578384fd5b8435610d178161112f565b935060208501359250604085013567ffffffffffffffff811115610d39578283fd5b610d4587828801610aef565b95989497509550505050565b60008060208385031215610d63578182fd5b823567ffffffffffffffff80821115610d7a578384fd5b81850186601f820112610d8b578485fd5b8035925081831115610d9b578485fd5b8660208085028301011115610dae578485fd5b60200196919550909350505050565b600080600060408486031215610dd1578283fd5b83359250602084013567ffffffffffffffff811115610dee578283fd5b610dfa86828701610aef565b9497909650939450505050565b600060208284031215610e18578081fd5b81516001600160e01b03198116811461030b578182fd5b60008060008060408587031215610e44578384fd5b843567ffffffffffffffff80821115610e5b578586fd5b610e6788838901610aef565b90965094506020870135915080821115610e7f578384fd5b50610d4587828801610aef565b60008284528282602086013780602084860101526020601f19601f85011685010190509392505050565b60008151808452610ece816020860160208601611103565b601f01601f19169290920160200192915050565b6000828483379101908152919050565b60008251610f04818460208701611103565b9190910192915050565b6001600160a01b0391909116815260200190565b901515815260200190565b600084825260406020830152610f47604083018486610e8c565b95945050505050565b93845260ff9290921660208401526040830152606082015260800190565b6001600160e01b031991909116815260200190565b600060408252610f97604083018688610e8c565b8281036020840152610faa818587610e8c565b979650505050505050565b6060810160088510610fc357fe5b938152602081019290925260409091015290565b60006020825261030b6020830184610eb6565b602080825260139082015272185b1c9958591e481a5b9a5d1a585b1a5e9959606a1b604082015260600190565b60208082526018908201527f63616c6c6572206973206e6f7420617574686f72697a65640000000000000000604082015260600190565b60208082526018908201527f696e76616c69642d7369676e61747572652d666f726d61740000000000000000604082015260600190565b90815260200190565b6000838252604060208301526101ee6040830184610eb6565b6000808335601e198436030181126110bd578283fd5b8084018035925067ffffffffffffffff8311156110d8578384fd5b60200192505036819003821315610b2f57600080fd5b60008235605e19833603018112610f04578182fd5b60005b8381101561111e578181015183820152602001611106565b838111156107d85750506000910152565b6001600160a01b038116811461072657600080fdfea2646970667358221220748f86edd6665c6235d629a9cd0650e5fa4b1dede0137c969a697eea5b8c044364736f6c634300060a0033",
  "immutableReferences": {},
  "source": "pragma solidity ^0.6.0;\npragma experimental ABIEncoderV2;\n\nimport \"@openzeppelin/contracts/token/ERC721/IERC721Receiver.sol\";\nimport \"@openzeppelin/contracts/token/ERC777/IERC777Recipient.sol\";\nimport \"@openzeppelin/contracts/utils/Address.sol\";\nimport \"@opengsn/gsn/contracts/BaseRelayRecipient.sol\";\nimport \"@iexec/solidity/contracts/ERC1271/IERC1271.sol\";\nimport \"@iexec/solidity/contracts/ERC1654/IERC1654.sol\";\nimport \"@iexec/solidity/contracts/Libs/ECDSA.sol\";\nimport \"./core/CounterfactualTokenEntity.sol\";\n\nstruct Call\n{\n\taddress to;\n\tuint256 value;\n\tbytes   data;\n}\n\ncontract AdministeredWallet is\n\tCounterfactualTokenEntity,\n\tBaseRelayRecipient,\n\tECDSA,\n\tIERC721Receiver,\n\tIERC777Recipient,\n\tIERC1271,\n\tIERC1654\n{\n\tusing Address for address;\n\n\tevent Executed(address indexed to, uint256 value, bytes data);\n\n\t// Potentially usefull: receive eth with data (gsn appended data?)\n\t// receive()\n\t// external payable\n\t// {\n\t// \temit Received(msg.sender, msg.value);\n\t// }\n\t//\n\t// fallback()\n\t// external payable\n\t// {\n\t// \trequire(msg.value > 0, 'invalid-function-call');\n\t// \temit Received(msg.sender, msg.value);\n\t// }\n\n\t// GSN support\n\tfunction _msgSender()\n\tinternal view override(Context, BaseRelayRecipient) returns (address payable sender)\n\t{\n\t\treturn BaseRelayRecipient._msgSender();\n\t}\n\n\tfunction versionRecipient()\n\texternal virtual view override returns (string memory)\n\t{\n\t\treturn \"1.0\";\n\t}\n\n\tfunction getTrustedForwarder()\n\tpublic view returns(address)\n\t{\n\t\treturn trustedForwarder;\n\t}\n\n\t// Configure\n\tfunction configure(address _trustedForwarder)\n\tpublic onlyRegistry()\n\t{\n\t\ttrustedForwarder = _trustedForwarder;\n\t}\n\n\t// Wallet\n\tfunction forward(address to, uint256 value, bytes calldata data)\n\texternal onlyOwnerOrRegistry()\n\t{\n\t\t_execute(to, value, data);\n\t}\n\n\tfunction forwardBatch(Call[] calldata calls)\n\texternal onlyOwnerOrRegistry()\n\t{\n\t\tfor (uint256 i = 0; i < calls.length; ++i)\n\t\t{\n\t\t\t_execute(calls[i].to, calls[i].value, calls[i].data);\n\t\t}\n\t}\n\n\tfunction _execute(address to, uint256 value, bytes memory data)\n\tinternal\n\t{\n\t\t(bool success, bytes memory returndata) = payable(to).call{value: value}(data);\n\t\trequire(success, string(returndata));\n\t\temit Executed(to, value, data);\n\t}\n\n\t// ERC721\n\tfunction onERC721Received(address, address, uint256, bytes memory)\n\tpublic override returns (bytes4)\n\t{\n\t\t// TODO: emit event ?\n\t\treturn this.onERC721Received.selector;\n\t}\n\n\t// ERC777\n\tfunction tokensReceived(address, address, address, uint256, bytes memory, bytes memory)\n\tpublic override\n\t{\n\t\t// TODO: emit event ?\n\t}\n\n\t// ERC 1271\n\tfunction isValidSignature(bytes calldata data, bytes calldata signature)\n\texternal view override returns (bytes4 magicValue)\n\t{\n\t\taddress signer = owner();\n\t\tif (signer.isContract())\n\t\t{\n\t\t\treturn IERC1271(signer).isValidSignature(data, signature);\n\t\t}\n\t\telse\n\t\t{\n\t\t\trequire(signer == recover(keccak256(data), signature));\n\t\t\treturn IERC1271(0).isValidSignature.selector;\n\t\t}\n\t}\n\n\t// ERC 1654\n\tfunction isValidSignature(bytes32 data, bytes calldata signature)\n\texternal view override returns (bytes4 magicValue)\n\t{\n\t\taddress signer = owner();\n\t\tif (signer.isContract())\n\t\t{\n\t\t\treturn IERC1654(signer).isValidSignature(data, signature);\n\t\t}\n\t\telse\n\t\t{\n\t\t\trequire(signer == recover(data, signature));\n\t\t\treturn IERC1654(0).isValidSignature.selector;\n\t\t}\n\t}\n}\n",
  "sourcePath": "/home/amxx/EEIM/packages/AdministeredWallets/contracts/AdministeredWallet.sol",
  "compiler": {
    "name": "solc",
    "version": "0.6.10+commit.00c0fcaf.Emscripten.clang"
  },
  "schemaVersion": "3.2.0",
  "updatedAt": "2020-06-12T13:16:56.591Z",
  "devdoc": {
    "methods": {}
  },
  "userdoc": {
    "methods": {}
  }
}