{
  "contractName": "AdministeredWalletFactory",
  "abi": [
    {
      "inputs": [],
      "stateMutability": "nonpayable",
      "type": "constructor"
    },
    {
      "anonymous": false,
      "inputs": [
        {
          "indexed": true,
          "internalType": "address",
          "name": "owner",
          "type": "address"
        },
        {
          "indexed": true,
          "internalType": "address",
          "name": "approved",
          "type": "address"
        },
        {
          "indexed": true,
          "internalType": "uint256",
          "name": "tokenId",
          "type": "uint256"
        }
      ],
      "name": "Approval",
      "type": "event"
    },
    {
      "anonymous": false,
      "inputs": [
        {
          "indexed": true,
          "internalType": "address",
          "name": "owner",
          "type": "address"
        },
        {
          "indexed": true,
          "internalType": "address",
          "name": "operator",
          "type": "address"
        },
        {
          "indexed": false,
          "internalType": "bool",
          "name": "approved",
          "type": "bool"
        }
      ],
      "name": "ApprovalForAll",
      "type": "event"
    },
    {
      "anonymous": false,
      "inputs": [
        {
          "indexed": true,
          "internalType": "address",
          "name": "previousOwner",
          "type": "address"
        },
        {
          "indexed": true,
          "internalType": "address",
          "name": "newOwner",
          "type": "address"
        }
      ],
      "name": "OwnershipTransferred",
      "type": "event"
    },
    {
      "anonymous": false,
      "inputs": [
        {
          "indexed": true,
          "internalType": "address",
          "name": "from",
          "type": "address"
        },
        {
          "indexed": true,
          "internalType": "address",
          "name": "to",
          "type": "address"
        },
        {
          "indexed": true,
          "internalType": "uint256",
          "name": "tokenId",
          "type": "uint256"
        }
      ],
      "name": "Transfer",
      "type": "event"
    },
    {
      "inputs": [
        {
          "internalType": "address",
          "name": "to",
          "type": "address"
        },
        {
          "internalType": "uint256",
          "name": "tokenId",
          "type": "uint256"
        }
      ],
      "name": "approve",
      "outputs": [],
      "stateMutability": "nonpayable",
      "type": "function"
    },
    {
      "inputs": [
        {
          "internalType": "address",
          "name": "owner",
          "type": "address"
        }
      ],
      "name": "balanceOf",
      "outputs": [
        {
          "internalType": "uint256",
          "name": "",
          "type": "uint256"
        }
      ],
      "stateMutability": "view",
      "type": "function",
      "constant": true
    },
    {
      "inputs": [],
      "name": "baseURI",
      "outputs": [
        {
          "internalType": "string",
          "name": "",
          "type": "string"
        }
      ],
      "stateMutability": "view",
      "type": "function",
      "constant": true
    },
    {
      "inputs": [
        {
          "internalType": "uint256",
          "name": "tokenId",
          "type": "uint256"
        }
      ],
      "name": "getApproved",
      "outputs": [
        {
          "internalType": "address",
          "name": "",
          "type": "address"
        }
      ],
      "stateMutability": "view",
      "type": "function",
      "constant": true
    },
    {
      "inputs": [
        {
          "internalType": "address",
          "name": "owner",
          "type": "address"
        },
        {
          "internalType": "address",
          "name": "operator",
          "type": "address"
        }
      ],
      "name": "isApprovedForAll",
      "outputs": [
        {
          "internalType": "bool",
          "name": "",
          "type": "bool"
        }
      ],
      "stateMutability": "view",
      "type": "function",
      "constant": true
    },
    {
      "inputs": [
        {
          "internalType": "address",
          "name": "forwarder",
          "type": "address"
        }
      ],
      "name": "isTrustedForwarder",
      "outputs": [
        {
          "internalType": "bool",
          "name": "",
          "type": "bool"
        }
      ],
      "stateMutability": "view",
      "type": "function",
      "constant": true
    },
    {
      "inputs": [],
      "name": "master",
      "outputs": [
        {
          "internalType": "address",
          "name": "",
          "type": "address"
        }
      ],
      "stateMutability": "view",
      "type": "function",
      "constant": true
    },
    {
      "inputs": [],
      "name": "name",
      "outputs": [
        {
          "internalType": "string",
          "name": "",
          "type": "string"
        }
      ],
      "stateMutability": "view",
      "type": "function",
      "constant": true
    },
    {
      "inputs": [],
      "name": "owner",
      "outputs": [
        {
          "internalType": "address",
          "name": "",
          "type": "address"
        }
      ],
      "stateMutability": "view",
      "type": "function",
      "constant": true
    },
    {
      "inputs": [
        {
          "internalType": "uint256",
          "name": "tokenId",
          "type": "uint256"
        }
      ],
      "name": "ownerOf",
      "outputs": [
        {
          "internalType": "address",
          "name": "",
          "type": "address"
        }
      ],
      "stateMutability": "view",
      "type": "function",
      "constant": true
    },
    {
      "inputs": [],
      "name": "proxyCode",
      "outputs": [
        {
          "internalType": "bytes",
          "name": "",
          "type": "bytes"
        }
      ],
      "stateMutability": "view",
      "type": "function",
      "constant": true
    },
    {
      "inputs": [],
      "name": "proxyCodeHash",
      "outputs": [
        {
          "internalType": "bytes32",
          "name": "",
          "type": "bytes32"
        }
      ],
      "stateMutability": "view",
      "type": "function",
      "constant": true
    },
    {
      "inputs": [],
      "name": "renounceOwnership",
      "outputs": [],
      "stateMutability": "nonpayable",
      "type": "function"
    },
    {
      "inputs": [
        {
          "internalType": "address",
          "name": "from",
          "type": "address"
        },
        {
          "internalType": "address",
          "name": "to",
          "type": "address"
        },
        {
          "internalType": "uint256",
          "name": "tokenId",
          "type": "uint256"
        }
      ],
      "name": "safeTransferFrom",
      "outputs": [],
      "stateMutability": "nonpayable",
      "type": "function"
    },
    {
      "inputs": [
        {
          "internalType": "address",
          "name": "from",
          "type": "address"
        },
        {
          "internalType": "address",
          "name": "to",
          "type": "address"
        },
        {
          "internalType": "uint256",
          "name": "tokenId",
          "type": "uint256"
        },
        {
          "internalType": "bytes",
          "name": "_data",
          "type": "bytes"
        }
      ],
      "name": "safeTransferFrom",
      "outputs": [],
      "stateMutability": "nonpayable",
      "type": "function"
    },
    {
      "inputs": [
        {
          "internalType": "address",
          "name": "operator",
          "type": "address"
        },
        {
          "internalType": "bool",
          "name": "approved",
          "type": "bool"
        }
      ],
      "name": "setApprovalForAll",
      "outputs": [],
      "stateMutability": "nonpayable",
      "type": "function"
    },
    {
      "inputs": [
        {
          "internalType": "bytes4",
          "name": "interfaceId",
          "type": "bytes4"
        }
      ],
      "name": "supportsInterface",
      "outputs": [
        {
          "internalType": "bool",
          "name": "",
          "type": "bool"
        }
      ],
      "stateMutability": "view",
      "type": "function",
      "constant": true
    },
    {
      "inputs": [],
      "name": "symbol",
      "outputs": [
        {
          "internalType": "string",
          "name": "",
          "type": "string"
        }
      ],
      "stateMutability": "view",
      "type": "function",
      "constant": true
    },
    {
      "inputs": [
        {
          "internalType": "uint256",
          "name": "index",
          "type": "uint256"
        }
      ],
      "name": "tokenByIndex",
      "outputs": [
        {
          "internalType": "uint256",
          "name": "",
          "type": "uint256"
        }
      ],
      "stateMutability": "view",
      "type": "function",
      "constant": true
    },
    {
      "inputs": [
        {
          "internalType": "address",
          "name": "owner",
          "type": "address"
        },
        {
          "internalType": "uint256",
          "name": "index",
          "type": "uint256"
        }
      ],
      "name": "tokenOfOwnerByIndex",
      "outputs": [
        {
          "internalType": "uint256",
          "name": "",
          "type": "uint256"
        }
      ],
      "stateMutability": "view",
      "type": "function",
      "constant": true
    },
    {
      "inputs": [
        {
          "internalType": "uint256",
          "name": "tokenId",
          "type": "uint256"
        }
      ],
      "name": "tokenURI",
      "outputs": [
        {
          "internalType": "string",
          "name": "",
          "type": "string"
        }
      ],
      "stateMutability": "view",
      "type": "function",
      "constant": true
    },
    {
      "inputs": [],
      "name": "totalSupply",
      "outputs": [
        {
          "internalType": "uint256",
          "name": "",
          "type": "uint256"
        }
      ],
      "stateMutability": "view",
      "type": "function",
      "constant": true
    },
    {
      "inputs": [
        {
          "internalType": "address",
          "name": "from",
          "type": "address"
        },
        {
          "internalType": "address",
          "name": "to",
          "type": "address"
        },
        {
          "internalType": "uint256",
          "name": "tokenId",
          "type": "uint256"
        }
      ],
      "name": "transferFrom",
      "outputs": [],
      "stateMutability": "nonpayable",
      "type": "function"
    },
    {
      "inputs": [
        {
          "internalType": "address",
          "name": "newOwner",
          "type": "address"
        }
      ],
      "name": "transferOwnership",
      "outputs": [],
      "stateMutability": "nonpayable",
      "type": "function"
    },
    {
      "inputs": [],
      "name": "versionRecipient",
      "outputs": [
        {
          "internalType": "string",
          "name": "",
          "type": "string"
        }
      ],
      "stateMutability": "view",
      "type": "function",
      "constant": true
    },
    {
      "inputs": [],
      "name": "getTrustedForwarder",
      "outputs": [
        {
          "internalType": "address",
          "name": "",
          "type": "address"
        }
      ],
      "stateMutability": "view",
      "type": "function",
      "constant": true
    },
    {
      "inputs": [
        {
          "internalType": "address",
          "name": "_trustedForwarder",
          "type": "address"
        }
      ],
      "name": "configure",
      "outputs": [],
      "stateMutability": "nonpayable",
      "type": "function"
    },
    {
      "inputs": [
        {
          "internalType": "uint256",
          "name": "_tokenid",
          "type": "uint256"
        },
        {
          "internalType": "address",
          "name": "_trustedForwarder",
          "type": "address"
        }
      ],
      "name": "configure",
      "outputs": [],
      "stateMutability": "nonpayable",
      "type": "function"
    },
    {
      "inputs": [
        {
          "internalType": "uint256",
          "name": "_tokenid",
          "type": "uint256"
        },
        {
          "internalType": "address",
          "name": "_signer",
          "type": "address"
        }
      ],
      "name": "adminTransfer",
      "outputs": [],
      "stateMutability": "nonpayable",
      "type": "function"
    },
    {
      "inputs": [
        {
          "internalType": "address",
          "name": "_owner",
          "type": "address"
        },
        {
          "internalType": "bytes32",
          "name": "_salt",
          "type": "bytes32"
        }
      ],
      "name": "createWallet",
      "outputs": [
        {
          "internalType": "address payable",
          "name": "",
          "type": "address"
        }
      ],
      "stateMutability": "payable",
      "type": "function",
      "payable": true
    },
    {
      "inputs": [
        {
          "internalType": "address",
          "name": "_owner",
          "type": "address"
        },
        {
          "internalType": "bytes32",
          "name": "_salt",
          "type": "bytes32"
        }
      ],
      "name": "predictWallet",
      "outputs": [
        {
          "internalType": "address",
          "name": "",
          "type": "address"
        }
      ],
      "stateMutability": "view",
      "type": "function",
      "constant": true
    },
    {
      "inputs": [
        {
          "internalType": "address",
          "name": "_ens",
          "type": "address"
        },
        {
          "internalType": "string",
          "name": "_name",
          "type": "string"
        }
      ],
      "name": "setName",
      "outputs": [],
      "stateMutability": "nonpayable",
      "type": "function"
    }
  ],
  "bytecode": "0x60806040523480156200001157600080fd5b50604051620000209062000463565b604051809103906000f0801580156200003d573d6000803e3d6000fd5b50604080518082018252601281527110591b5a5b9a5cdd195c995915d85b1b195d60721b60208083019190915282518084019093526002835261415760f01b908301529081816200009e6301ffc9a760e01b6001600160e01b036200025316565b8151620000b390600690602085019062000471565b508051620000c990600790602084019062000471565b50620000e56380ac58cd60e01b6001600160e01b036200025316565b62000100635b5e139f60e01b6001600160e01b036200025316565b6200011b63780e9d6360e01b6001600160e01b036200025316565b5060009050620001336001600160e01b03620002d816565b600a80546001600160a01b0319166001600160a01b038316908117909155604051919250906000907f8be0079c531659141344cd1fd0a4f28419497f9722a3daafe3b4186f6b6457e0908290a350600b80546001600160a01b0319166001600160a01b038516179055604051620001ad60208201620004f6565b601f1982820381018352601f909101166040528051620001d791600c916020919091019062000471565b50600c6040518082805460018160011615610100020316600290048015620002395780601f106200021657610100808354040283529182019162000239565b820191906000526020600020905b81548152906001019060200180831162000224575b5050604051908190039020600d5550620005219350505050565b6001600160e01b03198082161415620002b3576040805162461bcd60e51b815260206004820152601c60248201527f4552433136353a20696e76616c696420696e7465726661636520696400000000604482015290519081900360640190fd5b6001600160e01b0319166000908152602081905260409020805460ff19166001179055565b6000620002ef620002f560201b620017971760201c565b90505b90565b60006018361080159062000318575062000318336001600160e01b036200037e16565b156200037957620003716000368080601f01602080910402602001604051908101604052809392919081815260200183838082843760009201919091525050366013190191505062000392602090811b6200180517901c565b9050620002f2565b503390565b600e546001600160a01b0390811691161490565b60008160140183511015620003d357620003d3620003c26004855185601401620003e560201b6200183d1760201c565b6200045b60201b620018b31760201c565b5001601401516001600160a01b031690565b6060632800659560e01b848484604051602401808460078111156200040657fe5b60ff1681526020018381526020018281526020019350505050604051602081830303815290604052906001600160e01b0319166020820180516001600160e01b03838183161783525050505090509392505050565b805160208201fd5b61119a806200319a83390190565b828054600181600116156101000203166002900490600052602060002090601f016020900481019282601f10620004b457805160ff1916838001178555620004e4565b82800160010185558215620004e4579182015b82811115620004e4578251825591602001919060010190620004c7565b50620004f292915062000504565b5090565b6103fd806200433483390190565b620002f291905b80821115620004f257600081556001016200050b565b612c6980620005316000396000f3fe6080604052600436106101e35760003560e01c80636fa59bbc11610102578063b20ca81811610095578063e985e9c511610064578063e985e9c51461083d578063ee97f7f314610878578063eee391111461088d578063f2fde38b146108a2576101e3565b8063b20ca818146106ff578063b88d4fde1461072b578063c87b56dd146107fe578063ce1b815f14610828576101e3565b806381b8d60b116100d157806381b8d60b146106615780638da5cb5b1461069a57806395d89b41146106af578063a22cb465146106c4576101e3565b80636fa59bbc146105d157806370a08231146105e6578063715018a61461061957806375cb26721461062e576101e3565b80632f745c591161017a5780634f6ccce7116101495780634f6ccce714610535578063572b6c051461055f5780636352211e146105925780636c0360eb146105bc576101e3565b80632f745c59146104175780633121db1c1461045057806342842e0e146104dd578063486ff0cd14610520576101e3565b8063095ea7b3116101b6578063095ea7b31461033b578063136fecbd1461037457806318160ddd146103ad57806323b872dd146103d4576101e3565b806301ffc9a7146101e85780630483fc5e1461023057806306fdde031461026b578063081812fc146102f5575b600080fd5b3480156101f457600080fd5b5061021c6004803603602081101561020b57600080fd5b50356001600160e01b0319166108d5565b604080519115158252519081900360200190f35b34801561023c57600080fd5b506102696004803603604081101561025357600080fd5b50803590602001356001600160a01b03166108f8565b005b34801561027757600080fd5b50610280610967565b6040805160208082528351818301528351919283929083019185019080838360005b838110156102ba5781810151838201526020016102a2565b50505050905090810190601f1680156102e75780820380516001836020036101000a031916815260200191505b509250505060405180910390f35b34801561030157600080fd5b5061031f6004803603602081101561031857600080fd5b50356109fe565b604080516001600160a01b039092168252519081900360200190f35b34801561034757600080fd5b506102696004803603604081101561035e57600080fd5b506001600160a01b038135169060200135610a60565b34801561038057600080fd5b5061031f6004803603604081101561039757600080fd5b506001600160a01b038135169060200135610b3b565b3480156103b957600080fd5b506103c2610b58565b60408051918252519081900360200190f35b3480156103e057600080fd5b50610269600480360360608110156103f757600080fd5b506001600160a01b03813581169160208101359091169060400135610b69565b34801561042357600080fd5b506103c26004803603604081101561043a57600080fd5b506001600160a01b038135169060200135610bc0565b34801561045c57600080fd5b506102696004803603604081101561047357600080fd5b6001600160a01b03823516919081019060408101602082013564010000000081111561049e57600080fd5b8201836020820111156104b057600080fd5b803590602001918460018302840111640100000000831117156104d257600080fd5b509092509050610be8565b3480156104e957600080fd5b506102696004803603606081101561050057600080fd5b506001600160a01b03813581169160208101359091169060400135610c80565b34801561052c57600080fd5b50610280610c9b565b34801561054157600080fd5b506103c26004803603602081101561055857600080fd5b5035610cb8565b34801561056b57600080fd5b5061021c6004803603602081101561058257600080fd5b50356001600160a01b0316610cd4565b34801561059e57600080fd5b5061031f600480360360208110156105b557600080fd5b5035610ce8565b3480156105c857600080fd5b50610280610d16565b3480156105dd57600080fd5b50610280610d77565b3480156105f257600080fd5b506103c26004803603602081101561060957600080fd5b50356001600160a01b0316610e05565b34801561062557600080fd5b50610269610e6d565b34801561063a57600080fd5b506102696004803603602081101561065157600080fd5b50356001600160a01b0316610f0f565b34801561066d57600080fd5b506102696004803603604081101561068457600080fd5b50803590602001356001600160a01b0316610f89565b3480156106a657600080fd5b5061031f611055565b3480156106bb57600080fd5b50610280611064565b3480156106d057600080fd5b50610269600480360360408110156106e757600080fd5b506001600160a01b03813516906020013515156110c5565b61031f6004803603604081101561071557600080fd5b506001600160a01b0381351690602001356111ca565b34801561073757600080fd5b506102696004803603608081101561074e57600080fd5b6001600160a01b0382358116926020810135909116916040820135919081019060808101606082013564010000000081111561078957600080fd5b82018360208201111561079b57600080fd5b803590602001918460018302840111640100000000831117156107bd57600080fd5b91908080601f016020809104026020016040519081016040528093929190818152602001838380828437600092019190915250929550611347945050505050565b34801561080a57600080fd5b506102806004803603602081101561082157600080fd5b50356113a5565b34801561083457600080fd5b5061031f61164c565b34801561084957600080fd5b5061021c6004803603604081101561086057600080fd5b506001600160a01b038135811691602001351661165b565b34801561088457600080fd5b5061031f611689565b34801561089957600080fd5b506103c2611698565b3480156108ae57600080fd5b50610269600480360360208110156108c557600080fd5b50356001600160a01b031661169e565b6001600160e01b0319811660009081526020819052604090205460ff165b919050565b6109006118bb565b600a546001600160a01b03908116911614610950576040805162461bcd60e51b81526020600482018190526024820152600080516020612b6a833981519152604482015290519081900360640190fd5b61096361095c83610ce8565b82846118c5565b5050565b60068054604080516020601f60026000196101006001881615020190951694909404938401819004810282018101909252828152606093909290918301828280156109f35780601f106109c8576101008083540402835291602001916109f3565b820191906000526020600020905b8154815290600101906020018083116109d657829003601f168201915b505050505090505b90565b6000610a0982611a23565b610a445760405162461bcd60e51b815260040180806020018281038252602c815260200180612b3e602c913960400191505060405180910390fd5b506000908152600460205260409020546001600160a01b031690565b6000610a6b82610ce8565b9050806001600160a01b0316836001600160a01b03161415610abe5760405162461bcd60e51b8152600401808060200182810382526021815260200180612be26021913960400191505060405180910390fd5b806001600160a01b0316610ad06118bb565b6001600160a01b03161480610af15750610af181610aec6118bb565b61165b565b610b2c5760405162461bcd60e51b8152600401808060200182810382526038815260200180612a916038913960400191505060405180910390fd5b610b368383611a36565b505050565b6000610b4f83610b4a84611aa4565b611ae3565b90505b92915050565b6000610b646002611b8d565b905090565b610b7a610b746118bb565b82611b98565b610bb55760405162461bcd60e51b8152600401808060200182810382526031815260200180612c036031913960400191505060405180910390fd5b610b368383836118c5565b6001600160a01b0382166000908152600160205260408120610b4f908363ffffffff611c3c16565b610bf06118bb565b600a546001600160a01b03908116911614610c40576040805162461bcd60e51b81526020600482018190526024820152600080516020612b6a833981519152604482015290519081900360640190fd5b610b368383838080601f016020809104026020016040519081016040528093929190818152602001838380828437600092019190915250611c4892505050565b610b3683838360405180602001604052806000815250611347565b6040805180820190915260038152620312e360ec1b602082015290565b600080610ccc60028463ffffffff611dad16565b509392505050565b600e546001600160a01b0390811691161490565b6000610b5282604051806060016040528060298152602001612af3602991396002919063ffffffff611dc916565b60098054604080516020601f60026000196101006001881615020190951694909404938401819004810282018101909252828152606093909290918301828280156109f35780601f106109c8576101008083540402835291602001916109f3565b600c805460408051602060026001851615610100026000190190941693909304601f81018490048402820184019092528181529291830182828015610dfd5780601f10610dd257610100808354040283529160200191610dfd565b820191906000526020600020905b815481529060010190602001808311610de057829003601f168201915b505050505081565b60006001600160a01b038216610e4c5760405162461bcd60e51b815260040180806020018281038252602a815260200180612ac9602a913960400191505060405180910390fd5b6001600160a01b0382166000908152600160205260409020610b5290611b8d565b610e756118bb565b600a546001600160a01b03908116911614610ec5576040805162461bcd60e51b81526020600482018190526024820152600080516020612b6a833981519152604482015290519081900360640190fd5b600a546040516000916001600160a01b0316907f8be0079c531659141344cd1fd0a4f28419497f9722a3daafe3b4186f6b6457e0908390a3600a80546001600160a01b0319169055565b610f176118bb565b600a546001600160a01b03908116911614610f67576040805162461bcd60e51b81526020600482018190526024820152600080516020612b6a833981519152604482015290519081900360640190fd5b600e80546001600160a01b0319166001600160a01b0392909216919091179055565b610f916118bb565b600a546001600160a01b03908116911614610fe1576040805162461bcd60e51b81526020600482018190526024820152600080516020612b6a833981519152604482015290519081900360640190fd5b816001600160a01b03166375cb2672826040518263ffffffff1660e01b815260040180826001600160a01b03166001600160a01b03168152602001915050600060405180830381600087803b15801561103957600080fd5b505af115801561104d573d6000803e3d6000fd5b505050505050565b600a546001600160a01b031690565b60078054604080516020601f60026000196101006001881615020190951694909404938401819004810282018101909252828152606093909290918301828280156109f35780601f106109c8576101008083540402835291602001916109f3565b6110cd6118bb565b6001600160a01b0316826001600160a01b03161415611133576040805162461bcd60e51b815260206004820152601960248201527f4552433732313a20617070726f766520746f2063616c6c657200000000000000604482015290519081900360640190fd5b80600560006111406118bb565b6001600160a01b03908116825260208083019390935260409182016000908120918716808252919093529120805460ff1916921515929092179091556111846118bb565b60408051841515815290516001600160a01b0392909216917f17307eab39ab6107e8899845ad3d59bd9653f200f220920489ca2b5937696c319181900360200190a35050565b60006111d46118bb565b600a546001600160a01b03908116911614611224576040805162461bcd60e51b81526020600482018190526024820152600080516020612b6a833981519152604482015290519081900360640190fd5b60006112388461123385611aa4565b611dd6565b600e54909150611254906001600160a01b038084169116610f89565b3415610b4f576040516000906060906001600160a01b0384169034908481818185875af1925050503d80600081146112a8576040519150601f19603f3d011682016040523d82523d6000602084013e6112ad565b606091505b509150915081819061133d5760405162461bcd60e51b81526004018080602001828103825283818151815260200191508051906020019080838360005b838110156113025781810151838201526020016112ea565b50505050905090810190601f16801561132f5780820380516001836020036101000a031916815260200191505b509250505060405180910390fd5b5050509392505050565b6113586113526118bb565b83611b98565b6113935760405162461bcd60e51b8152600401808060200182810382526031815260200180612c036031913960400191505060405180910390fd5b61139f84848484612000565b50505050565b60606113b082611a23565b6113eb5760405162461bcd60e51b815260040180806020018281038252602f815260200180612bb3602f913960400191505060405180910390fd5b60008281526008602090815260409182902080548351601f60026000196101006001861615020190931692909204918201849004840281018401909452808452606093928301828280156114805780601f1061145557610100808354040283529160200191611480565b820191906000526020600020905b81548152906001019060200180831161146357829003601f168201915b5050600954939450505050600260001961010060018416150201909116046114a95790506108f3565b80511561157a5760098160405160200180838054600181600116156101000203166002900480156115115780601f106114ef576101008083540402835291820191611511565b820191906000526020600020905b8154815290600101906020018083116114fd575b5050825160208401908083835b6020831061153d5780518252601f19909201916020918201910161151e565b6001836020036101000a038019825116818451168082178552505050505050905001925050506040516020818303038152906040529150506108f3565b600961158584612052565b60405160200180838054600181600116156101000203166002900480156115e35780601f106115c15761010080835404028352918201916115e3565b820191906000526020600020905b8154815290600101906020018083116115cf575b5050825160208401908083835b6020831061160f5780518252601f1990920191602091820191016115f0565b6001836020036101000a03801982511681845116808217855250505050505090500192505050604051602081830303815290604052915050919050565b600e546001600160a01b031690565b6001600160a01b03918216600090815260056020908152604080832093909416825291909152205460ff1690565b600b546001600160a01b031681565b600d5481565b6116a66118bb565b600a546001600160a01b039081169116146116f6576040805162461bcd60e51b81526020600482018190526024820152600080516020612b6a833981519152604482015290519081900360640190fd5b6001600160a01b03811661173b5760405162461bcd60e51b8152600401808060200182810382526026815260200180612a1b6026913960400191505060405180910390fd5b600a546040516001600160a01b038084169216907f8be0079c531659141344cd1fd0a4f28419497f9722a3daafe3b4186f6b6457e090600090a3600a80546001600160a01b0319166001600160a01b0392909216919091179055565b6000601836108015906117ae57506117ae33610cd4565b15611800576117f96000368080601f01602080910402602001604051908101604052809392919081815260200183838082843760009201919091525050601319360191506118059050565b90506109fb565b503390565b6000816014018351101561182b5761182b611826600485518560140161183d565b6118b3565b5001601401516001600160a01b031690565b6060632800659560e01b8484846040516024018084600781111561185d57fe5b60ff1681526020018381526020018281526020019350505050604051602081830303815290604052906001600160e01b0319166020820180516001600160e01b03838183161783525050505090505b9392505050565b805160208201fd5b6000610b64611797565b826001600160a01b03166118d882610ce8565b6001600160a01b03161461191d5760405162461bcd60e51b8152600401808060200182810382526029815260200180612b8a6029913960400191505060405180910390fd5b6001600160a01b0382166119625760405162461bcd60e51b8152600401808060200182810382526024815260200180612a416024913960400191505060405180910390fd5b61196d838383610b36565b611978600082611a36565b6001600160a01b03831660009081526001602052604090206119a0908263ffffffff61212d16565b506001600160a01b03821660009081526001602052604090206119c9908263ffffffff61213916565b506119dc6002828463ffffffff61214516565b5080826001600160a01b0316846001600160a01b03167fddf252ad1be2c89b69c2b068fc378daa952ba7f163c4a11628f55a4df523b3ef60405160405180910390a4505050565b6000610b5260028363ffffffff61215b16565b600081815260046020526040902080546001600160a01b0319166001600160a01b0384169081179091558190611a6b82610ce8565b6001600160a01b03167f8c5be1e5ebec7d5bd14f71427d1e84f3dd0314c0f7b2291e5b200ac8c7c3b92560405160405180910390a45050565b604080513060248201526044808201939093528151808203909301835260640190526020810180516001600160e01b031663189acdbd60e31b17905290565b600080611b7c83856040516020018083805190602001908083835b60208310611b1d5780518252601f199092019160209182019101611afe565b6001836020036101000a038019825116818451168082178552505050505050905001826001600160a01b03166001600160a01b031660601b81526014019250505060405160208183030381529060405280519060200120600d54612167565b6001600160a01b0316949350505050565b6000610b5282612174565b6000611ba382611a23565b611bde5760405162461bcd60e51b815260040180806020018281038252602c815260200180612a65602c913960400191505060405180910390fd5b6000611be983610ce8565b9050806001600160a01b0316846001600160a01b03161480611c245750836001600160a01b0316611c19846109fe565b6001600160a01b0316145b80611c345750611c34818561165b565b949350505050565b6000610b4f8383612178565b604080516302571be360e01b81527f91d1777781884d03a6757a803996e38de2a42967fb37eeaca72729271025a9e2600482015290516001600160a01b038416916302571be3916024808301926020929190829003018186803b158015611cae57600080fd5b505afa158015611cc2573d6000803e3d6000fd5b505050506040513d6020811015611cd857600080fd5b505160405163c47f002760e01b81526020600482018181528451602484015284516001600160a01b039094169363c47f002793869383926044909201919085019080838360005b83811015611d37578181015183820152602001611d1f565b50505050905090810190601f168015611d645780820380516001836020036101000a031916815260200191505b5092505050602060405180830381600087803b158015611d8357600080fd5b505af1158015611d97573d6000803e3d6000fd5b505050506040513d602081101561139f57600080fd5b6000808080611dbc86866121dc565b9097909650945050505050565b6000611c34848484612257565b600080611f09600084866040516020018083805190602001908083835b60208310611e125780518252601f199092019160209182019101611df3565b6001836020036101000a038019825116818451168082178552505050505050905001826001600160a01b03166001600160a01b031660601b81526014019250505060405160208183030381529060405280519060200120600c8054600181600116156101000203166002900480601f016020809104026020016040519081016040528092919081815260200182805460018160011615610100020316600290048015611eff5780601f10611ed457610100808354040283529160200191611eff565b820191906000526020600020905b815481529060010190602001808311611ee257829003601f168201915b50505050506122e4565b600b546040805163347d5e2560e21b81526001600160a01b0392831660048201818152602483019384528851604484015288519596509386169463d1f5789494919389939091606490910190602085019080838360005b83811015611f78578181015183820152602001611f60565b50505050905090810190601f168015611fa55780820380516001836020036101000a031916815260200191505b509350505050600060405180830381600087803b158015611fc557600080fd5b505af1158015611fd9573d6000803e3d6000fd5b50505050611ff084826001600160a01b03166123f5565b6001600160a01b03169392505050565b61200b8484846118c5565b6120178484848461252f565b61139f5760405162461bcd60e51b81526004018080602001828103825260328152602001806129e96032913960400191505060405180910390fd5b60608161207757506040805180820190915260018152600360fc1b60208201526108f3565b8160005b811561208f57600101600a8204915061207b565b60608167ffffffffffffffff811180156120a857600080fd5b506040519080825280601f01601f1916602001820160405280156120d3576020820181803683370190505b50859350905060001982015b831561212457600a840660300160f81b8282806001900393508151811061210257fe5b60200101906001600160f81b031916908160001a905350600a840493506120df565b50949350505050565b6000610b4f838361276a565b6000610b4f8383612830565b6000611c3484846001600160a01b03851661287a565b6000610b4f8383612911565b6000610b4f838330612929565b5490565b815460009082106121ba5760405162461bcd60e51b81526004018080602001828103825260228152602001806129c76022913960400191505060405180910390fd5b8260000182815481106121c957fe5b9060005260206000200154905092915050565b8154600090819083106122205760405162461bcd60e51b8152600401808060200182810382526022815260200180612b1c6022913960400191505060405180910390fd5b600084600001848154811061223157fe5b906000526020600020906002020190508060000154816001015492509250509250929050565b600082815260018401602052604081205482816122b55760405162461bcd60e51b81526020600482018181528351602484015283519092839260449091019190850190808383600083156113025781810151838201526020016112ea565b508460000160018203815481106122c857fe5b9060005260206000209060020201600101549150509392505050565b6000808447101561233c576040805162461bcd60e51b815260206004820152601d60248201527f437265617465323a20696e73756666696369656e742062616c616e6365000000604482015290519081900360640190fd5b825161238f576040805162461bcd60e51b815260206004820181905260248201527f437265617465323a2062797465636f6465206c656e677468206973207a65726f604482015290519081900360640190fd5b8383516020850187f590506001600160a01b038116611c34576040805162461bcd60e51b815260206004820152601960248201527f437265617465323a204661696c6564206f6e206465706c6f7900000000000000604482015290519081900360640190fd5b6001600160a01b038216612450576040805162461bcd60e51b815260206004820181905260248201527f4552433732313a206d696e7420746f20746865207a65726f2061646472657373604482015290519081900360640190fd5b61245981611a23565b156124ab576040805162461bcd60e51b815260206004820152601c60248201527f4552433732313a20746f6b656e20616c7265616479206d696e74656400000000604482015290519081900360640190fd5b6124b760008383610b36565b6001600160a01b03821660009081526001602052604090206124df908263ffffffff61213916565b506124f26002828463ffffffff61214516565b5060405181906001600160a01b038416906000907fddf252ad1be2c89b69c2b068fc378daa952ba7f163c4a11628f55a4df523b3ef908290a45050565b6000612543846001600160a01b031661298d565b61254f57506001611c34565b600060606001600160a01b038616630a85bd0160e11b61256d6118bb565b89888860405160240180856001600160a01b03166001600160a01b03168152602001846001600160a01b03166001600160a01b0316815260200183815260200180602001828103825283818151815260200191508051906020019080838360005b838110156125e65781810151838201526020016125ce565b50505050905090810190601f1680156126135780820380516001836020036101000a031916815260200191505b5060408051601f198184030181529181526020820180516001600160e01b03166001600160e01b0319909a16999099178952518151919890975087965094509250829150849050835b6020831061267b5780518252601f19909201916020918201910161265c565b6001836020036101000a0380198251168184511680821785525050505050509050019150506000604051808303816000865af19150503d80600081146126dd576040519150601f19603f3d011682016040523d82523d6000602084013e6126e2565b606091505b509150915081612733578051156126fc5780518082602001fd5b60405162461bcd60e51b81526004018080602001828103825260328152602001806129e96032913960400191505060405180910390fd5b600081806020019051602081101561274a57600080fd5b50516001600160e01b031916630a85bd0160e11b149350611c3492505050565b60008181526001830160205260408120548015612826578354600019808301919081019060009087908390811061279d57fe5b90600052602060002001549050808760000184815481106127ba57fe5b6000918252602080832090910192909255828152600189810190925260409020908401905586548790806127ea57fe5b60019003818190600052602060002001600090559055866001016000878152602001908152602001600020600090556001945050505050610b52565b6000915050610b52565b600061283c8383612911565b61287257508154600181810184556000848152602080822090930184905584548482528286019093526040902091909155610b52565b506000610b52565b6000828152600184016020526040812054806128df5750506040805180820182528381526020808201848152865460018181018955600089815284812095516002909302909501918255915190820155865486845281880190925292909120556118ac565b828560000160018303815481106128f257fe5b90600052602060002090600202016001018190555060009150506118ac565b60009081526001919091016020526040902054151590565b604080516001600160f81b031960208083019190915260609390931b6bffffffffffffffffffffffff19166021820152603581019490945260558085019390935280518085039093018352607590930190925280519101206001600160a01b031690565b6000813f7fc5d2460186f7233c927e7db2dcc703c0e500b653ca82273b7bfad8045d85a470818114801590611c3457505015159291505056fe456e756d657261626c655365743a20696e646578206f7574206f6620626f756e64734552433732313a207472616e7366657220746f206e6f6e20455243373231526563656976657220696d706c656d656e7465724f776e61626c653a206e6577206f776e657220697320746865207a65726f20616464726573734552433732313a207472616e7366657220746f20746865207a65726f20616464726573734552433732313a206f70657261746f7220717565727920666f72206e6f6e6578697374656e7420746f6b656e4552433732313a20617070726f76652063616c6c6572206973206e6f74206f776e6572206e6f7220617070726f76656420666f7220616c6c4552433732313a2062616c616e636520717565727920666f7220746865207a65726f20616464726573734552433732313a206f776e657220717565727920666f72206e6f6e6578697374656e7420746f6b656e456e756d657261626c654d61703a20696e646578206f7574206f6620626f756e64734552433732313a20617070726f76656420717565727920666f72206e6f6e6578697374656e7420746f6b656e4f776e61626c653a2063616c6c6572206973206e6f7420746865206f776e65724552433732313a207472616e73666572206f6620746f6b656e2074686174206973206e6f74206f776e4552433732314d657461646174613a2055524920717565727920666f72206e6f6e6578697374656e7420746f6b656e4552433732313a20617070726f76616c20746f2063757272656e74206f776e65724552433732313a207472616e736665722063616c6c6572206973206e6f74206f776e6572206e6f7220617070726f766564a2646970667358221220c39398bf34947b1bf06612058ee9a32fc234ba79b17b91576dd491c871dd37e464736f6c634300060a0033608060405234801561001057600080fd5b5061117a806100206000396000f3fe608060405234801561001057600080fd5b50600436106100ce5760003560e01c806375cb26721161008c578063aef0562911610066578063aef056291461019c578063c4d66de8146101af578063ce1b815f146101c2578063d7f31eb9146101ca576100ce565b806375cb26721461016c5780637b1039991461017f5780638da5cb5b14610194576100ce565b806223de29146100d3578063150b7a02146100e85780631626ba7e1461011157806320c13b0b14610124578063486ff0cd14610137578063572b6c051461014c575b600080fd5b6100e66100e1366004610bec565b6101dd565b005b6100fb6100f6366004610c8d565b6101e5565b6040516101089190610f6e565b60405180910390f35b6100fb61011f366004610dbd565b6101f6565b6100fb610132366004610e2f565b610312565b61013f610444565b6040516101089190610fd7565b61015f61015a366004610bb4565b610462565b6040516101089190610f22565b6100e661017a366004610bb4565b610476565b6101876104d6565b6040516101089190610f0e565b6101876104e5565b6100e66101aa366004610d51565b61056b565b6100e66101bd366004610bb4565b610699565b610187610729565b6100e66101d8366004610cf7565b610738565b505050505050565b630a85bd0160e11b5b949350505050565b6000806102016104e5565b9050610215816001600160a01b03166107de565b156102a257604051630b135d3f60e11b81526001600160a01b03821690631626ba7e9061024a90889088908890600401610f2d565b60206040518083038186803b15801561026257600080fd5b505afa158015610276573d6000803e3d6000fd5b505050506040513d601f19601f8201168201806040525081019061029a9190610e07565b91505061030b565b6102e28585858080601f01602080910402602001604051908101604052809392919081815260200183838082843760009201919091525061081792505050565b6001600160a01b0316816001600160a01b0316146102ff57600080fd5b50630b135d3f60e11b90505b9392505050565b60008061031d6104e5565b9050610331816001600160a01b03166107de565b156103c0576040516320c13b0b60e01b81526001600160a01b038216906320c13b0b90610368908990899089908990600401610f83565b60206040518083038186803b15801561038057600080fd5b505afa158015610394573d6000803e3d6000fd5b505050506040513d601f19601f820116820180604052508101906103b89190610e07565b9150506101ee565b61041786866040516103d3929190610ee2565b604051809103902085858080601f01602080910402602001604051908101604052809392919081815260200183838082843760009201919091525061081792505050565b6001600160a01b0316816001600160a01b03161461043457600080fd5b506320c13b0b60e01b90506101ee565b6040805180820190915260038152620312e360ec1b60208201525b90565b6001546001600160a01b0390811691161490565b61047e61090e565b6000546001600160a01b039081169116146104b45760405162461bcd60e51b81526004016104ab90611017565b60405180910390fd5b600180546001600160a01b0319166001600160a01b0392909216919091179055565b6000546001600160a01b031681565b600080546040516331a9108f60e11b81526001600160a01b0390911690636352211e90610516903090600401611085565b60206040518083038186803b15801561052e57600080fd5b505afa158015610542573d6000803e3d6000fd5b505050506040513d601f19601f820116820180604052508101906105669190610bd0565b905090565b61057361090e565b6001600160a01b03166105846104e5565b6001600160a01b031614806105ae575061059c61090e565b6000546001600160a01b039081169116145b6105ca5760405162461bcd60e51b81526004016104ab90611017565b60005b818110156106945761068c8383838181106105e457fe5b90506020028101906105f691906110ee565b610604906020810190610bb4565b84848481811061061057fe5b905060200281019061062291906110ee565b6020013585858581811061063257fe5b905060200281019061064491906110ee565b6106529060408101906110a7565b8080601f01602080910402602001604051908101604052809392919081815260200183838082843760009201919091525061091892505050565b6001016105cd565b505050565b6000546001600160a01b0316156106c25760405162461bcd60e51b81526004016104ab90610fea565b600080546001600160a01b0319166001600160a01b03831617905547156107265760006001600160a01b03167f88a5966d370b9919b20f3e2c13ff65706f196a4e32cc2c12bf57088f885258744760405161071d9190611085565b60405180910390a25b50565b6001546001600160a01b031690565b61074061090e565b6001600160a01b03166107516104e5565b6001600160a01b0316148061077b575061076961090e565b6000546001600160a01b039081169116145b6107975760405162461bcd60e51b81526004016104ab90611017565b6107d8848484848080601f01602080910402602001604051908101604052809392919081815260200183838082843760009201919091525061091892505050565b50505050565b6000813f7fc5d2460186f7233c927e7db2dcc703c0e500b653ca82273b7bfad8045d85a4708181148015906101ee575050151592915050565b6000806000808451604114156108415750505060208201516040830151606084015160001a610886565b84516040141561086e57505050602082015160408301516001600160ff1b0381169060001a60071c610886565b60405162461bcd60e51b81526004016104ab9061104e565b601b8160ff16101561089657601b015b8060ff16601b14806108ab57508060ff16601c145b6108b457600080fd5b600186828585604051600081526020016040526040516108d79493929190610f50565b6020604051602081039080840390855afa1580156108f9573d6000803e3d6000fd5b5050604051601f190151979650505050505050565b60006105666109e7565b60006060846001600160a01b031684846040516109359190610ef2565b60006040518083038185875af1925050503d8060008114610972576040519150601f19603f3d011682016040523d82523d6000602084013e610977565b606091505b509150915081819061099c5760405162461bcd60e51b81526004016104ab9190610fd7565b50846001600160a01b03167fcaf938de11c367272220bfd1d2baa99ca46665e7bc4d85f00adb51b90fe1fa9f85856040516109d892919061108e565b60405180910390a25050505050565b6000601836108015906109fe57506109fe33610462565b15610a5057610a496000368080601f0160208091040260200160405190810160405280939291908181526020018383808284376000920191909152505060131936019150610a559050565b905061045f565b503390565b60008160140183511015610a7b57610a7b610a766004855185601401610a8d565b610ae7565b5001601401516001600160a01b031690565b6060632800659560e01b848484604051602401610aac93929190610fb5565b60408051601f198184030181529190526020810180516001600160e01b03166001600160e01b03199093169290921790915290509392505050565b805160208201fd5b60008083601f840112610b00578182fd5b50813567ffffffffffffffff811115610b17578182fd5b602083019150836020828501011115610b2f57600080fd5b9250929050565b600082601f830112610b46578081fd5b813567ffffffffffffffff80821115610b5d578283fd5b604051601f8301601f191681016020018281118282101715610b7d578485fd5b604052828152925082848301602001861015610b9857600080fd5b8260208601602083013760006020848301015250505092915050565b600060208284031215610bc5578081fd5b813561030b8161112f565b600060208284031215610be1578081fd5b815161030b8161112f565b60008060008060008060c08789031215610c04578182fd5b8635610c0f8161112f565b95506020870135610c1f8161112f565b94506040870135610c2f8161112f565b935060608701359250608087013567ffffffffffffffff80821115610c52578384fd5b610c5e8a838b01610b36565b935060a0890135915080821115610c73578283fd5b50610c8089828a01610b36565b9150509295509295509295565b60008060008060808587031215610ca2578384fd5b8435610cad8161112f565b93506020850135610cbd8161112f565b925060408501359150606085013567ffffffffffffffff811115610cdf578182fd5b610ceb87828801610b36565b91505092959194509250565b60008060008060608587031215610d0c578384fd5b8435610d178161112f565b935060208501359250604085013567ffffffffffffffff811115610d39578283fd5b610d4587828801610aef565b95989497509550505050565b60008060208385031215610d63578182fd5b823567ffffffffffffffff80821115610d7a578384fd5b81850186601f820112610d8b578485fd5b8035925081831115610d9b578485fd5b8660208085028301011115610dae578485fd5b60200196919550909350505050565b600080600060408486031215610dd1578283fd5b83359250602084013567ffffffffffffffff811115610dee578283fd5b610dfa86828701610aef565b9497909650939450505050565b600060208284031215610e18578081fd5b81516001600160e01b03198116811461030b578182fd5b60008060008060408587031215610e44578384fd5b843567ffffffffffffffff80821115610e5b578586fd5b610e6788838901610aef565b90965094506020870135915080821115610e7f578384fd5b50610d4587828801610aef565b60008284528282602086013780602084860101526020601f19601f85011685010190509392505050565b60008151808452610ece816020860160208601611103565b601f01601f19169290920160200192915050565b6000828483379101908152919050565b60008251610f04818460208701611103565b9190910192915050565b6001600160a01b0391909116815260200190565b901515815260200190565b600084825260406020830152610f47604083018486610e8c565b95945050505050565b93845260ff9290921660208401526040830152606082015260800190565b6001600160e01b031991909116815260200190565b600060408252610f97604083018688610e8c565b8281036020840152610faa818587610e8c565b979650505050505050565b6060810160088510610fc357fe5b938152602081019290925260409091015290565b60006020825261030b6020830184610eb6565b602080825260139082015272185b1c9958591e481a5b9a5d1a585b1a5e9959606a1b604082015260600190565b60208082526018908201527f63616c6c6572206973206e6f7420617574686f72697a65640000000000000000604082015260600190565b60208082526018908201527f696e76616c69642d7369676e61747572652d666f726d61740000000000000000604082015260600190565b90815260200190565b6000838252604060208301526101ee6040830184610eb6565b6000808335601e198436030181126110bd578283fd5b8084018035925067ffffffffffffffff8311156110d8578384fd5b60200192505036819003821315610b2f57600080fd5b60008235605e19833603018112610f04578182fd5b60005b8381101561111e578181015183820152602001611106565b838111156107d85750506000910152565b6001600160a01b038116811461072657600080fdfea2646970667358221220748f86edd6665c6235d629a9cd0650e5fa4b1dede0137c969a697eea5b8c044364736f6c634300060a0033608060405234801561001057600080fd5b506103dd806100206000396000f3fe6080604052600436106100225760003560e01c8063d1f57894146100695761005f565b3661005f5760408051348152905133917f88a5966d370b9919b20f3e2c13ff65706f196a4e32cc2c12bf57088f88525874919081900360200190a2005b61006761011f565b005b6100676004803603604081101561007f57600080fd5b6001600160a01b0382351691908101906040810160208201356401000000008111156100aa57600080fd5b8201836020820111156100bc57600080fd5b803590602001918460018302840111640100000000831117156100de57600080fd5b91908080601f016020809104026020016040519081016040528093929190818152602001838380828437600092019190915250929550610139945050505050565b610127610137565b61013761013261025c565b610281565b565b600061014361025c565b6001600160a01b03161461015657600080fd5b60405180602361034a82396040519081900360230190207f7050c9e0f4ca769c69bd3a8ef740bc37934f8e2c036e5a723fd8ee048ed3f8c314905061019757fe5b6101a0826102a5565b805115610258576000826001600160a01b0316826040518082805190602001908083835b602083106101e35780518252601f1990920191602091820191016101c4565b6001836020036101000a038019825116818451168082178552505050505050905001915050600060405180830381855af49150503d8060008114610243576040519150601f19603f3d011682016040523d82523d6000602084013e610248565b606091505b505090508061025657600080fd5b505b5050565b7f7050c9e0f4ca769c69bd3a8ef740bc37934f8e2c036e5a723fd8ee048ed3f8c35490565b3660008037600080366000845af43d6000803e8080156102a0573d6000f35b3d6000fd5b6102ae8161030d565b6102e95760405162461bcd60e51b815260040180806020018281038252603b81526020018061036d603b913960400191505060405180910390fd5b7f7050c9e0f4ca769c69bd3a8ef740bc37934f8e2c036e5a723fd8ee048ed3f8c355565b6000813f7fc5d2460186f7233c927e7db2dcc703c0e500b653ca82273b7bfad8045d85a47081811480159061034157508115155b94935050505056fe6f72672e7a657070656c696e6f732e70726f78792e696d706c656d656e746174696f6e43616e6e6f742073657420612070726f787920696d706c656d656e746174696f6e20746f2061206e6f6e2d636f6e74726163742061646472657373a2646970667358221220dd424bae767af7aa893b2c8c93f9ed47e0cdca792464cdba15e17c40fbefdf8664736f6c634300060a0033",
  "immutableReferences": {},
  "source": "pragma solidity ^0.6.0;\n\nimport \"@iexec/solidity/contracts/ENStools/ENSReverseRegistration.sol\";\nimport \"@opengsn/gsn/contracts/BaseRelayRecipient.sol\";\nimport \"./core/CounterfactualTokenRegistry.sol\";\nimport \"./AdministeredWallet.sol\";\n\n\ncontract AdministeredWalletFactory is\n\tCounterfactualTokenRegistry,\n\tBaseRelayRecipient,\n\tENSReverseRegistration\n{\n\tconstructor()\n\tpublic CounterfactualTokenRegistry(\n\t\taddress(new AdministeredWallet()),\n\t\t'AdministeredWallet',\n\t\t'AW')\n\t{\n\t}\n\n\t// GSN support\n\tfunction _msgSender()\n\tinternal view override(Context, BaseRelayRecipient) returns (address payable sender)\n\t{\n\t\treturn BaseRelayRecipient._msgSender();\n\t}\n\n\tfunction versionRecipient()\n\texternal virtual view override returns (string memory)\n\t{\n\t\treturn \"1.0\";\n\t}\n\n\tfunction getTrustedForwarder()\n\tpublic view returns(address)\n\t{\n\t\treturn trustedForwarder;\n\t}\n\n\t// Configure\n\tfunction configure(address _trustedForwarder)\n\tpublic onlyOwner()\n\t{\n\t\ttrustedForwarder = _trustedForwarder;\n\t}\n\n\tfunction configure(uint256 _tokenid, address _trustedForwarder)\n\tpublic onlyOwner()\n\t{\n\t\tAdministeredWallet(address(_tokenid)).configure(_trustedForwarder);\n\t}\n\n\tfunction adminTransfer(uint256 _tokenid, address _signer)\n\tpublic onlyOwner()\n\t{\n\t\t_transfer(ownerOf(_tokenid), _signer, _tokenid);\n\t}\n\n\t// Wallet support\n\tfunction encodeInitializer(bytes32 _salt)\n\tinternal view returns (bytes memory)\n\t{\n\t\treturn abi.encodeWithSignature('initialize(address)', address(this), _salt);\n\t}\n\n\tfunction createWallet(address _owner, bytes32 _salt)\n\texternal payable onlyOwner() returns (address payable)\n\t{\n\t\t// instanciate\n\t\taddress payable wallet = address(_mintCreate(_owner, encodeInitializer(_salt)));\n\t\t// configure gsn (trustedForwarder might change between networks)\n\t\tconfigure(uint256(wallet), trustedForwarder);\n\t\t// send value\n\t\tif (msg.value > 0)\n\t\t{\n\t\t\t(bool success, bytes memory returndata) = wallet.call{value: msg.value}('');\n\t\t\trequire(success, string(returndata));\n\t\t}\n\t\t// return\n\t\treturn wallet;\n\t}\n\n\tfunction predictWallet(address _owner, bytes32 _salt)\n\texternal view returns (address)\n\t{\n\t\treturn address(_mintPredict(_owner, encodeInitializer(_salt)));\n\t}\n\n\t// Tools\n\tfunction setName(address _ens, string calldata _name)\n\texternal onlyOwner()\n\t{\n\t\t_setName(IENS(_ens), _name);\n\t}\n}\n",
  "sourcePath": "/home/amxx/EEIM/packages/AdministeredWallets/contracts/AdministeredWalletFactory.sol",
  "compiler": {
    "name": "solc",
    "version": "0.6.10+commit.00c0fcaf.Emscripten.clang"
  },
  "schemaVersion": "3.2.0",
  "updatedAt": "2020-06-16T18:36:25.910Z",
  "networkType": "ethereum",
  "devdoc": {
    "methods": {
      "approve(address,uint256)": {
        "details": "Approves another address to transfer the given token ID The zero address indicates there is no approved address. There can only be one approved address per token at a given time. Can only be called by the token owner or an approved operator.",
        "params": {
          "to": "address to be approved for the given token ID",
          "tokenId": "uint256 ID of the token to be approved"
        }
      },
      "balanceOf(address)": {
        "details": "Gets the balance of the specified address.",
        "params": {
          "owner": "address to query the balance of"
        },
        "returns": {
          "_0": "uint256 representing the amount owned by the passed address"
        }
      },
      "baseURI()": {
        "details": "Returns the base URI set via {_setBaseURI}. This will be automatically added as a prefix in {tokenURI} to each token's URI, or to the token ID if no specific URI is set for that token ID."
      },
      "getApproved(uint256)": {
        "details": "Gets the approved address for a token ID, or zero if no address set Reverts if the token ID does not exist.",
        "params": {
          "tokenId": "uint256 ID of the token to query the approval of"
        },
        "returns": {
          "_0": "address currently approved for the given token ID"
        }
      },
      "isApprovedForAll(address,address)": {
        "details": "Tells whether an operator is approved by a given owner.",
        "params": {
          "operator": "operator address which you want to query the approval of",
          "owner": "owner address which you want to query the approval of"
        },
        "returns": {
          "_0": "bool whether the given operator is approved by the given owner"
        }
      },
      "name()": {
        "details": "Gets the token name.",
        "returns": {
          "_0": "string representing the token name"
        }
      },
      "owner()": {
        "details": "Returns the address of the current owner."
      },
      "ownerOf(uint256)": {
        "details": "Gets the owner of the specified token ID.",
        "params": {
          "tokenId": "uint256 ID of the token to query the owner of"
        },
        "returns": {
          "_0": "address currently marked as the owner of the given token ID"
        }
      },
      "renounceOwnership()": {
        "details": "Leaves the contract without owner. It will not be possible to call `onlyOwner` functions anymore. Can only be called by the current owner. NOTE: Renouncing ownership will leave the contract without an owner, thereby removing any functionality that is only available to the owner."
      },
      "safeTransferFrom(address,address,uint256)": {
        "details": "Safely transfers the ownership of a given token ID to another address If the target address is a contract, it must implement {IERC721Receiver-onERC721Received}, which is called upon a safe transfer, and return the magic value `bytes4(keccak256(\"onERC721Received(address,address,uint256,bytes)\"))`; otherwise, the transfer is reverted. Requires the msg.sender to be the owner, approved, or operator",
        "params": {
          "from": "current owner of the token",
          "to": "address to receive the ownership of the given token ID",
          "tokenId": "uint256 ID of the token to be transferred"
        }
      },
      "safeTransferFrom(address,address,uint256,bytes)": {
        "details": "Safely transfers the ownership of a given token ID to another address If the target address is a contract, it must implement {IERC721Receiver-onERC721Received}, which is called upon a safe transfer, and return the magic value `bytes4(keccak256(\"onERC721Received(address,address,uint256,bytes)\"))`; otherwise, the transfer is reverted. Requires the _msgSender() to be the owner, approved, or operator",
        "params": {
          "_data": "bytes data to send along with a safe transfer check",
          "from": "current owner of the token",
          "to": "address to receive the ownership of the given token ID",
          "tokenId": "uint256 ID of the token to be transferred"
        }
      },
      "setApprovalForAll(address,bool)": {
        "details": "Sets or unsets the approval of a given operator An operator is allowed to transfer all tokens of the sender on their behalf.",
        "params": {
          "approved": "representing the status of the approval to be set",
          "operator": "operator address to set the approval"
        }
      },
      "supportsInterface(bytes4)": {
        "details": "See {IERC165-supportsInterface}. Time complexity O(1), guaranteed to always use less than 30 000 gas."
      },
      "symbol()": {
        "details": "Gets the token symbol.",
        "returns": {
          "_0": "string representing the token symbol"
        }
      },
      "tokenByIndex(uint256)": {
        "details": "Gets the token ID at a given index of all the tokens in this contract Reverts if the index is greater or equal to the total number of tokens.",
        "params": {
          "index": "uint256 representing the index to be accessed of the tokens list"
        },
        "returns": {
          "_0": "uint256 token ID at the given index of the tokens list"
        }
      },
      "tokenOfOwnerByIndex(address,uint256)": {
        "details": "Gets the token ID at a given index of the tokens list of the requested owner.",
        "params": {
          "index": "uint256 representing the index to be accessed of the requested tokens list",
          "owner": "address owning the tokens list to be accessed"
        },
        "returns": {
          "_0": "uint256 token ID at the given index of the tokens list owned by the requested address"
        }
      },
      "tokenURI(uint256)": {
        "details": "Returns the URI for a given token ID. May return an empty string. If a base URI is set (via {_setBaseURI}), it is added as a prefix to the token's own URI (via {_setTokenURI}). If there is a base URI but no token URI, the token's ID will be used as its URI when appending it to the base URI. This pattern for autogenerated token URIs can lead to large gas savings. .Examples |=== |`_setBaseURI()` |`_setTokenURI()` |`tokenURI()` | \"\" | \"\" | \"\" | \"\" | \"token.uri/123\" | \"token.uri/123\" | \"token.uri/\" | \"123\" | \"token.uri/123\" | \"token.uri/\" | \"\" | \"token.uri/<tokenId>\" |=== Requirements: - `tokenId` must exist."
      },
      "totalSupply()": {
        "details": "Gets the total amount of tokens stored by the contract.",
        "returns": {
          "_0": "uint256 representing the total amount of tokens"
        }
      },
      "transferFrom(address,address,uint256)": {
        "details": "Transfers the ownership of a given token ID to another address. Usage of this method is discouraged, use {safeTransferFrom} whenever possible. Requires the msg.sender to be the owner, approved, or operator.",
        "params": {
          "from": "current owner of the token",
          "to": "address to receive the ownership of the given token ID",
          "tokenId": "uint256 ID of the token to be transferred"
        }
      },
      "transferOwnership(address)": {
        "details": "Transfers ownership of the contract to a new account (`newOwner`). Can only be called by the current owner."
      }
    }
  },
  "userdoc": {
    "methods": {}
  }
}