{
  "contractName": "SimpleForwarder",
  "abi": [
    {
      "inputs": [
        {
          "internalType": "address",
          "name": "",
          "type": "address"
        }
      ],
      "name": "nonces",
      "outputs": [
        {
          "internalType": "uint256",
          "name": "",
          "type": "uint256"
        }
      ],
      "stateMutability": "view",
      "type": "function",
      "constant": true
    },
    {
      "inputs": [
        {
          "internalType": "address",
          "name": "to",
          "type": "address"
        },
        {
          "internalType": "bytes",
          "name": "data",
          "type": "bytes"
        },
        {
          "internalType": "uint256",
          "name": "nonce",
          "type": "uint256"
        },
        {
          "internalType": "bytes",
          "name": "sign",
          "type": "bytes"
        }
      ],
      "name": "verifyAndRelay",
      "outputs": [],
      "stateMutability": "nonpayable",
      "type": "function"
    },
    {
      "inputs": [
        {
          "internalType": "address",
          "name": "to",
          "type": "address"
        },
        {
          "internalType": "bytes",
          "name": "data",
          "type": "bytes"
        },
        {
          "internalType": "uint256",
          "name": "nonce",
          "type": "uint256"
        },
        {
          "internalType": "bytes",
          "name": "sign",
          "type": "bytes"
        }
      ],
      "name": "verify",
      "outputs": [
        {
          "internalType": "address",
          "name": "",
          "type": "address"
        }
      ],
      "stateMutability": "view",
      "type": "function",
      "constant": true
    },
    {
      "inputs": [
        {
          "internalType": "address",
          "name": "to",
          "type": "address"
        },
        {
          "internalType": "bytes",
          "name": "data",
          "type": "bytes"
        },
        {
          "internalType": "uint256",
          "name": "nonce",
          "type": "uint256"
        }
      ],
      "name": "hash",
      "outputs": [
        {
          "internalType": "bytes32",
          "name": "",
          "type": "bytes32"
        }
      ],
      "stateMutability": "view",
      "type": "function",
      "constant": true
    },
    {
      "inputs": [],
      "name": "chainId",
      "outputs": [
        {
          "internalType": "uint256",
          "name": "id",
          "type": "uint256"
        }
      ],
      "stateMutability": "pure",
      "type": "function",
      "constant": true
    }
  ],
  "bytecode": "0x608060405234801561001057600080fd5b5061088f806100206000396000f3fe608060405234801561001057600080fd5b50600436106100575760003560e01c80637ecebe001461005c5780639a2a4c53146100945780639a8a0592146101825780639cd611d21461018a578063c5fbb0551461025e575b600080fd5b6100826004803603602081101561007257600080fd5b50356001600160a01b03166102dc565b60408051918252519081900360200190f35b610166600480360360808110156100aa57600080fd5b6001600160a01b038235169190810190604081016020820135600160201b8111156100d457600080fd5b8201836020820111156100e657600080fd5b803590602001918460018302840111600160201b8311171561010757600080fd5b91939092823592604081019060200135600160201b81111561012857600080fd5b82018360208201111561013a57600080fd5b803590602001918460018302840111600160201b8311171561015b57600080fd5b5090925090506102ee565b604080516001600160a01b039092168252519081900360200190f35b610082610357565b61025c600480360360808110156101a057600080fd5b6001600160a01b038235169190810190604081016020820135600160201b8111156101ca57600080fd5b8201836020820111156101dc57600080fd5b803590602001918460018302840111600160201b831117156101fd57600080fd5b91939092823592604081019060200135600160201b81111561021e57600080fd5b82018360208201111561023057600080fd5b803590602001918460018302840111600160201b8311171561025157600080fd5b50909250905061035b565b005b6100826004803603606081101561027457600080fd5b6001600160a01b038235169190810190604081016020820135600160201b81111561029e57600080fd5b8201836020820111156102b057600080fd5b803590602001918460018302840111600160201b831117156102d157600080fd5b919350915035610558565b60006020819052908152604090205481565b600061034c83838080601f016020809104026020016040519081016040528093929190818152602001838380828437600092019190915250610340925061033b91508b90508a8a8a610558565b6105dd565b9063ffffffff61062e16565b979650505050505050565b4690565b600061036b8787878787876102ee565b6001600160a01b038116600090815260208190526040902080546001810190915590915084146103d2576040805162461bcd60e51b815260206004820152600d60248201526c696e76616c69642d6e6f6e636560981b604482015290519081900360640190fd5b60006060886001600160a01b03168888856040516020018084848082843780830192505050826001600160a01b03166001600160a01b031660601b815260140193505050506040516020818303038152906040526040518082805190602001908083835b602083106104555780518252601f199092019160209182019101610436565b6001836020036101000a0380198251168184511680821785525050505050509050019150506000604051808303816000865af19150503d80600081146104b7576040519150601f19603f3d011682016040523d82523d6000602084013e6104bc565b606091505b509150915081819061054c5760405162461bcd60e51b81526004018080602001828103825283818151815260200191508051906020019080838360005b838110156105115781810151838201526020016104f9565b50505050905090810190601f16801561053e5780820380516001836020036101000a031916815260200191505b509250505060405180910390fd5b50505050505050505050565b600030610563610357565b8686868660405160200180876001600160a01b03166001600160a01b031660601b8152601401868152602001856001600160a01b03166001600160a01b031660601b8152601401848480828437919091019283525050604080518083038152602092830190915280519101209a9950505050505050505050565b604080517f19457468657265756d205369676e6564204d6573736167653a0a333200000000602080830191909152603c8083019490945282518083039094018452605c909101909152815191012090565b60008151604114610686576040805162461bcd60e51b815260206004820152601f60248201527f45434453413a20696e76616c6964207369676e6174757265206c656e67746800604482015290519081900360640190fd5b60208201516040830151606084015160001a7f7fffffffffffffffffffffffffffffff5d576e7357a4501ddfe92f46681b20a08211156106f75760405162461bcd60e51b81526004018080602001828103825260228152602001806108166022913960400191505060405180910390fd5b8060ff16601b1415801561070f57508060ff16601c14155b1561074b5760405162461bcd60e51b81526004018080602001828103825260228152602001806108386022913960400191505060405180910390fd5b60408051600080825260208083018085528a905260ff85168385015260608301879052608083018690529251909260019260a080820193601f1981019281900390910190855afa1580156107a3573d6000803e3d6000fd5b5050604051601f1901519150506001600160a01b03811661080b576040805162461bcd60e51b815260206004820152601860248201527f45434453413a20696e76616c6964207369676e61747572650000000000000000604482015290519081900360640190fd5b969550505050505056fe45434453413a20696e76616c6964207369676e6174757265202773272076616c756545434453413a20696e76616c6964207369676e6174757265202776272076616c7565a2646970667358221220dff19206a2ce62514d44691d8934fb044db113e0bf9e5aede0eb375addc29e5464736f6c634300060a0033",
  "immutableReferences": {},
  "source": "pragma solidity ^0.6.0;\n\nimport \"@openzeppelin/contracts/cryptography/ECDSA.sol\";\n\ncontract SimpleForwarder\n{\n\tusing ECDSA for bytes32;\n\n\tmapping(address => uint256) public nonces;\n\n\tfunction verifyAndRelay(\n\t\taddress        to,\n\t\tbytes calldata data,\n\t\tuint256        nonce,\n\t\tbytes calldata sign)\n\texternal\n\t{\n\t\taddress sender = verify(to, data, nonce, sign);\n\t\trequire(nonces[sender]++ == nonce, \"invalid-nonce\");\n\t\t(bool success, bytes memory returndata) = to.call(abi.encodePacked(data, sender));\n\t\trequire(success, string(returndata));\n\t}\n\n\tfunction verify(\n\t\taddress        to,\n\t\tbytes calldata data,\n\t\tuint256        nonce,\n\t\tbytes calldata sign)\n\tpublic view returns (address)\n\t{\n\t\treturn hash(to, data, nonce).toEthSignedMessageHash().recover(sign);\n\t}\n\n\tfunction hash(address to, bytes calldata data, uint256 nonce)\n\tpublic view returns (bytes32)\n\t{\n\t\treturn keccak256(abi.encodePacked(\n\t\t\taddress(this),\n\t\t\tchainId(),\n\t\t\tto,\n\t\t\tdata,\n\t\t\tnonce\n\t\t));\n\t}\n\n\tfunction chainId()\n\tpublic pure returns (uint256 id)\n\t{\n\t\tassembly { id := chainid() }\n\t}\n}\n",
  "sourcePath": "/home/amxx/EEIM/packages/AdministeredWallets/contracts/forwarders/SimpleForwarder.sol",
  "compiler": {
    "name": "solc",
    "version": "0.6.10+commit.00c0fcaf.Emscripten.clang"
  },
  "schemaVersion": "3.2.0",
  "updatedAt": "2020-06-12T14:01:48.913Z",
  "networkType": "ethereum",
  "devdoc": {
    "methods": {}
  },
  "userdoc": {
    "methods": {}
  }
}